{
  "_format": "hh-sol-artifact-1",
  "contractName": "CertificateContract",
  "sourceName": "contracts/Certificate.sol",
  "abi": [
    {
      "inputs": [
        {
          "internalType": "address",
          "name": "_roleManagerAddress",
          "type": "address"
        },
        {
          "internalType": "address",
          "name": "_userManagerAddress",
          "type": "address"
        }
      ],
      "stateMutability": "nonpayable",
      "type": "constructor"
    },
    {
      "inputs": [
        {
          "internalType": "address",
          "name": "sender",
          "type": "address"
        },
        {
          "internalType": "uint256",
          "name": "tokenId",
          "type": "uint256"
        },
        {
          "internalType": "address",
          "name": "owner",
          "type": "address"
        }
      ],
      "name": "ERC721IncorrectOwner",
      "type": "error"
    },
    {
      "inputs": [
        {
          "internalType": "address",
          "name": "operator",
          "type": "address"
        },
        {
          "internalType": "uint256",
          "name": "tokenId",
          "type": "uint256"
        }
      ],
      "name": "ERC721InsufficientApproval",
      "type": "error"
    },
    {
      "inputs": [
        {
          "internalType": "address",
          "name": "approver",
          "type": "address"
        }
      ],
      "name": "ERC721InvalidApprover",
      "type": "error"
    },
    {
      "inputs": [
        {
          "internalType": "address",
          "name": "operator",
          "type": "address"
        }
      ],
      "name": "ERC721InvalidOperator",
      "type": "error"
    },
    {
      "inputs": [
        {
          "internalType": "address",
          "name": "owner",
          "type": "address"
        }
      ],
      "name": "ERC721InvalidOwner",
      "type": "error"
    },
    {
      "inputs": [
        {
          "internalType": "address",
          "name": "receiver",
          "type": "address"
        }
      ],
      "name": "ERC721InvalidReceiver",
      "type": "error"
    },
    {
      "inputs": [
        {
          "internalType": "address",
          "name": "sender",
          "type": "address"
        }
      ],
      "name": "ERC721InvalidSender",
      "type": "error"
    },
    {
      "inputs": [
        {
          "internalType": "uint256",
          "name": "tokenId",
          "type": "uint256"
        }
      ],
      "name": "ERC721NonexistentToken",
      "type": "error"
    },
    {
      "anonymous": false,
      "inputs": [
        {
          "indexed": true,
          "internalType": "address",
          "name": "owner",
          "type": "address"
        },
        {
          "indexed": true,
          "internalType": "address",
          "name": "approved",
          "type": "address"
        },
        {
          "indexed": true,
          "internalType": "uint256",
          "name": "tokenId",
          "type": "uint256"
        }
      ],
      "name": "Approval",
      "type": "event"
    },
    {
      "anonymous": false,
      "inputs": [
        {
          "indexed": true,
          "internalType": "address",
          "name": "owner",
          "type": "address"
        },
        {
          "indexed": true,
          "internalType": "address",
          "name": "operator",
          "type": "address"
        },
        {
          "indexed": false,
          "internalType": "bool",
          "name": "approved",
          "type": "bool"
        }
      ],
      "name": "ApprovalForAll",
      "type": "event"
    },
    {
      "anonymous": false,
      "inputs": [
        {
          "indexed": false,
          "internalType": "uint256",
          "name": "_fromTokenId",
          "type": "uint256"
        },
        {
          "indexed": false,
          "internalType": "uint256",
          "name": "_toTokenId",
          "type": "uint256"
        }
      ],
      "name": "BatchMetadataUpdate",
      "type": "event"
    },
    {
      "anonymous": false,
      "inputs": [
        {
          "indexed": false,
          "internalType": "uint256",
          "name": "_tokenId",
          "type": "uint256"
        }
      ],
      "name": "MetadataUpdate",
      "type": "event"
    },
    {
      "anonymous": false,
      "inputs": [
        {
          "indexed": true,
          "internalType": "address",
          "name": "from",
          "type": "address"
        },
        {
          "indexed": true,
          "internalType": "address",
          "name": "to",
          "type": "address"
        },
        {
          "indexed": true,
          "internalType": "uint256",
          "name": "tokenId",
          "type": "uint256"
        }
      ],
      "name": "Transfer",
      "type": "event"
    },
    {
      "inputs": [
        {
          "internalType": "address",
          "name": "to",
          "type": "address"
        },
        {
          "internalType": "uint256",
          "name": "tokenId",
          "type": "uint256"
        }
      ],
      "name": "approve",
      "outputs": [],
      "stateMutability": "nonpayable",
      "type": "function"
    },
    {
      "inputs": [
        {
          "internalType": "address",
          "name": "owner",
          "type": "address"
        }
      ],
      "name": "balanceOf",
      "outputs": [
        {
          "internalType": "uint256",
          "name": "",
          "type": "uint256"
        }
      ],
      "stateMutability": "view",
      "type": "function"
    },
    {
      "inputs": [
        {
          "internalType": "address",
          "name": "userAddr",
          "type": "address"
        },
        {
          "internalType": "string",
          "name": "tokenURI",
          "type": "string"
        }
      ],
      "name": "createCertificate",
      "outputs": [
        {
          "internalType": "uint256",
          "name": "",
          "type": "uint256"
        }
      ],
      "stateMutability": "nonpayable",
      "type": "function"
    },
    {
      "inputs": [
        {
          "internalType": "uint256",
          "name": "tokenId",
          "type": "uint256"
        }
      ],
      "name": "getApproved",
      "outputs": [
        {
          "internalType": "address",
          "name": "",
          "type": "address"
        }
      ],
      "stateMutability": "view",
      "type": "function"
    },
    {
      "inputs": [
        {
          "internalType": "address",
          "name": "owner",
          "type": "address"
        },
        {
          "internalType": "address",
          "name": "operator",
          "type": "address"
        }
      ],
      "name": "isApprovedForAll",
      "outputs": [
        {
          "internalType": "bool",
          "name": "",
          "type": "bool"
        }
      ],
      "stateMutability": "view",
      "type": "function"
    },
    {
      "inputs": [
        {
          "internalType": "address",
          "name": "userAddr",
          "type": "address"
        }
      ],
      "name": "listAllCertificatesOfUser",
      "outputs": [
        {
          "internalType": "string[]",
          "name": "",
          "type": "string[]"
        }
      ],
      "stateMutability": "view",
      "type": "function"
    },
    {
      "inputs": [],
      "name": "name",
      "outputs": [
        {
          "internalType": "string",
          "name": "",
          "type": "string"
        }
      ],
      "stateMutability": "view",
      "type": "function"
    },
    {
      "inputs": [
        {
          "internalType": "uint256",
          "name": "tokenId",
          "type": "uint256"
        }
      ],
      "name": "ownerOf",
      "outputs": [
        {
          "internalType": "address",
          "name": "",
          "type": "address"
        }
      ],
      "stateMutability": "view",
      "type": "function"
    },
    {
      "inputs": [
        {
          "internalType": "address",
          "name": "from",
          "type": "address"
        },
        {
          "internalType": "address",
          "name": "to",
          "type": "address"
        },
        {
          "internalType": "uint256",
          "name": "tokenId",
          "type": "uint256"
        }
      ],
      "name": "safeTransferFrom",
      "outputs": [],
      "stateMutability": "nonpayable",
      "type": "function"
    },
    {
      "inputs": [
        {
          "internalType": "address",
          "name": "from",
          "type": "address"
        },
        {
          "internalType": "address",
          "name": "to",
          "type": "address"
        },
        {
          "internalType": "uint256",
          "name": "tokenId",
          "type": "uint256"
        },
        {
          "internalType": "bytes",
          "name": "data",
          "type": "bytes"
        }
      ],
      "name": "safeTransferFrom",
      "outputs": [],
      "stateMutability": "nonpayable",
      "type": "function"
    },
    {
      "inputs": [
        {
          "internalType": "address",
          "name": "operator",
          "type": "address"
        },
        {
          "internalType": "bool",
          "name": "approved",
          "type": "bool"
        }
      ],
      "name": "setApprovalForAll",
      "outputs": [],
      "stateMutability": "nonpayable",
      "type": "function"
    },
    {
      "inputs": [
        {
          "internalType": "bytes4",
          "name": "interfaceId",
          "type": "bytes4"
        }
      ],
      "name": "supportsInterface",
      "outputs": [
        {
          "internalType": "bool",
          "name": "",
          "type": "bool"
        }
      ],
      "stateMutability": "view",
      "type": "function"
    },
    {
      "inputs": [],
      "name": "symbol",
      "outputs": [
        {
          "internalType": "string",
          "name": "",
          "type": "string"
        }
      ],
      "stateMutability": "view",
      "type": "function"
    },
    {
      "inputs": [
        {
          "internalType": "uint256",
          "name": "tokenId",
          "type": "uint256"
        }
      ],
      "name": "tokenURI",
      "outputs": [
        {
          "internalType": "string",
          "name": "",
          "type": "string"
        }
      ],
      "stateMutability": "view",
      "type": "function"
    },
    {
      "inputs": [
        {
          "internalType": "address",
          "name": "from",
          "type": "address"
        },
        {
          "internalType": "address",
          "name": "to",
          "type": "address"
        },
        {
          "internalType": "uint256",
          "name": "tokenId",
          "type": "uint256"
        }
      ],
      "name": "transferFrom",
      "outputs": [],
      "stateMutability": "nonpayable",
      "type": "function"
    }
  ],
  "bytecode": "0x608060405234801561001057600080fd5b50604051612fbe380380612fbe833981810160405281019061003291906101ac565b6040518060400160405280601281526020017f45647550617373436572746966696361746500000000000000000000000000008152506040518060400160405280600381526020017f455043000000000000000000000000000000000000000000000000000000000081525081600090816100ad919061043c565b5080600190816100bd919061043c565b50505081600760006101000a81548173ffffffffffffffffffffffffffffffffffffffff021916908373ffffffffffffffffffffffffffffffffffffffff16021790555080600860006101000a81548173ffffffffffffffffffffffffffffffffffffffff021916908373ffffffffffffffffffffffffffffffffffffffff160217905550505061050e565b600080fd5b600073ffffffffffffffffffffffffffffffffffffffff82169050919050565b60006101798261014e565b9050919050565b6101898161016e565b811461019457600080fd5b50565b6000815190506101a681610180565b92915050565b600080604083850312156101c3576101c2610149565b5b60006101d185828601610197565b92505060206101e285828601610197565b9150509250929050565b600081519050919050565b7f4e487b7100000000000000000000000000000000000000000000000000000000600052604160045260246000fd5b7f4e487b7100000000000000000000000000000000000000000000000000000000600052602260045260246000fd5b6000600282049050600182168061026d57607f821691505b6020821081036102805761027f610226565b5b50919050565b60008190508160005260206000209050919050565b60006020601f8301049050919050565b600082821b905092915050565b6000600883026102e87fffffffffffffffffffffffffffffffffffffffffffffffffffffffffffffffff826102ab565b6102f286836102ab565b95508019841693508086168417925050509392505050565b6000819050919050565b6000819050919050565b600061033961033461032f8461030a565b610314565b61030a565b9050919050565b6000819050919050565b6103538361031e565b61036761035f82610340565b8484546102b8565b825550505050565b600090565b61037c61036f565b61038781848461034a565b505050565b5b818110156103ab576103a0600082610374565b60018101905061038d565b5050565b601f8211156103f0576103c181610286565b6103ca8461029b565b810160208510156103d9578190505b6103ed6103e58561029b565b83018261038c565b50505b505050565b600082821c905092915050565b6000610413600019846008026103f5565b1980831691505092915050565b600061042c8383610402565b9150826002028217905092915050565b610445826101ec565b67ffffffffffffffff81111561045e5761045d6101f7565b5b6104688254610255565b6104738282856103af565b600060209050601f8311600181146104a65760008415610494578287015190505b61049e8582610420565b865550610506565b601f1984166104b486610286565b60005b828110156104dc578489015182556001820191506020850194506020810190506104b7565b868310156104f957848901516104f5601f891682610402565b8355505b6001600288020188555050505b505050505050565b612aa18061051d6000396000f3fe608060405234801561001057600080fd5b50600436106100f45760003560e01c80636352211e11610097578063a22cb46511610066578063a22cb465146102a9578063b88d4fde146102c5578063c87b56dd146102e1578063e985e9c514610311576100f4565b80636352211e146101fb57806370a082311461022b578063954a68831461025b57806395d89b411461028b576100f4565b8063081812fc116100d3578063081812fc14610177578063095ea7b3146101a757806323b872dd146101c357806342842e0e146101df576100f4565b8062896eee146100f957806301ffc9a71461012957806306fdde0314610159575b600080fd5b610113600480360381019061010e9190611e25565b610341565b6040516101209190611e9a565b60405180910390f35b610143600480360381019061013e9190611f0d565b61055f565b6040516101509190611f55565b60405180910390f35b6101616105c0565b60405161016e9190611fef565b60405180910390f35b610191600480360381019061018c919061203d565b610652565b60405161019e9190612079565b60405180910390f35b6101c160048036038101906101bc9190612094565b61066e565b005b6101dd60048036038101906101d891906120d4565b610684565b005b6101f960048036038101906101f491906120d4565b610786565b005b6102156004803603810190610210919061203d565b6107a6565b6040516102229190612079565b60405180910390f35b61024560048036038101906102409190612127565b6107b8565b6040516102529190611e9a565b60405180910390f35b61027560048036038101906102709190612127565b610872565b6040516102829190612260565b60405180910390f35b610293610b17565b6040516102a09190611fef565b60405180910390f35b6102c360048036038101906102be91906122ae565b610ba9565b005b6102df60048036038101906102da919061238f565b610bbf565b005b6102fb60048036038101906102f6919061203d565b610be4565b6040516103089190611fef565b60405180910390f35b61032b60048036038101906103269190612412565b610cf7565b6040516103389190611f55565b60405180910390f35b60008080600281111561035757610356612452565b5b600760009054906101000a900473ffffffffffffffffffffffffffffffffffffffff1673ffffffffffffffffffffffffffffffffffffffff1663fde081746040518163ffffffff1660e01b8152600401602060405180830381865afa1580156103c4573d6000803e3d6000fd5b505050506040513d601f19601f820116820180604052508101906103e891906124a6565b60028111156103fa576103f9612452565b5b146040518060400160405280600c81526020017f554e415554484f52495a4544000000000000000000000000000000000000000081525090610472576040517f08c379a00000000000000000000000000000000000000000000000000000000081526004016104699190611fef565b60405180910390fd5b5060006009600081548092919061048890612502565b9190505590506104988582610d8b565b6104a28185610e84565b60006040518060400160405280838152602001600015158152509050600a60008773ffffffffffffffffffffffffffffffffffffffff1673ffffffffffffffffffffffffffffffffffffffff1681526020019081526020016000208190806001815401808255809150506001900390600052602060002090600202016000909190919091506000820151816000015560208201518160010160006101000a81548160ff021916908315150217905550505081935050505092915050565b6000634906490660e01b7bffffffffffffffffffffffffffffffffffffffffffffffffffffffff1916827bffffffffffffffffffffffffffffffffffffffffffffffffffffffff191614806105b957506105b882610ee0565b5b9050919050565b6060600080546105cf90612579565b80601f01602080910402602001604051908101604052809291908181526020018280546105fb90612579565b80156106485780601f1061061d57610100808354040283529160200191610648565b820191906000526020600020905b81548152906001019060200180831161062b57829003601f168201915b5050505050905090565b600061065d82610fc2565b506106678261104a565b9050919050565b610680828261067b611087565b61108f565b5050565b600073ffffffffffffffffffffffffffffffffffffffff168273ffffffffffffffffffffffffffffffffffffffff16036106f65760006040517f64a0ae920000000000000000000000000000000000000000000000000000000081526004016106ed9190612079565b60405180910390fd5b600061070a8383610705611087565b6110a1565b90508373ffffffffffffffffffffffffffffffffffffffff168173ffffffffffffffffffffffffffffffffffffffff1614610780578382826040517f64283d7b000000000000000000000000000000000000000000000000000000008152600401610777939291906125aa565b60405180910390fd5b50505050565b6107a183838360405180602001604052806000815250610bbf565b505050565b60006107b182610fc2565b9050919050565b60008073ffffffffffffffffffffffffffffffffffffffff168273ffffffffffffffffffffffffffffffffffffffff160361082b5760006040517f89c62b640000000000000000000000000000000000000000000000000000000081526004016108229190612079565b60405180910390fd5b600360008373ffffffffffffffffffffffffffffffffffffffff1673ffffffffffffffffffffffffffffffffffffffff168152602001908152602001600020549050919050565b60606000600a60008473ffffffffffffffffffffffffffffffffffffffff1673ffffffffffffffffffffffffffffffffffffffff168152602001908152602001600020805480602002602001604051908101604052809291908181526020016000905b8282101561092c5783829060005260206000209060020201604051806040016040529081600082015481526020016001820160009054906101000a900460ff161515151581525050815260200190600101906108d5565b5050505090506000815167ffffffffffffffff81111561094f5761094e611cfa565b5b60405190808252806020026020018201604052801561098257816020015b606081526020019060019003908161096d5790505b5090506000805b8351811015610b0b573373ffffffffffffffffffffffffffffffffffffffff168673ffffffffffffffffffffffffffffffffffffffff161480156109e957508381815181106109db576109da6125e1565b5b602002602001015160200151155b80610a815750600760009054906101000a900473ffffffffffffffffffffffffffffffffffffffff1673ffffffffffffffffffffffffffffffffffffffff16639805524a6040518163ffffffff1660e01b8152600401602060405180830381865afa158015610a5c573d6000803e3d6000fd5b505050506040513d601f19601f82011682018060405250810190610a809190612625565b5b80610aa75750838181518110610a9a57610a996125e1565b5b6020026020010151602001515b15610afe57610ad3848281518110610ac257610ac16125e1565b5b602002602001015160000151610be4565b838380610adf90612502565b945081518110610af257610af16125e1565b5b60200260200101819052505b8080600101915050610989565b50819350505050919050565b606060018054610b2690612579565b80601f0160208091040260200160405190810160405280929190818152602001828054610b5290612579565b8015610b9f5780601f10610b7457610100808354040283529160200191610b9f565b820191906000526020600020905b815481529060010190602001808311610b8257829003601f168201915b5050505050905090565b610bbb610bb4611087565b83836112bb565b5050565b610bca848484610684565b610bde610bd5611087565b8585858561142a565b50505050565b6060610bef82610fc2565b506000600660008481526020019081526020016000208054610c1090612579565b80601f0160208091040260200160405190810160405280929190818152602001828054610c3c90612579565b8015610c895780601f10610c5e57610100808354040283529160200191610c89565b820191906000526020600020905b815481529060010190602001808311610c6c57829003601f168201915b505050505090506000610c9a6115db565b90506000815103610caf578192505050610cf2565b600082511115610ce4578082604051602001610ccc92919061268e565b60405160208183030381529060405292505050610cf2565b610ced846115f2565b925050505b919050565b6000600560008473ffffffffffffffffffffffffffffffffffffffff1673ffffffffffffffffffffffffffffffffffffffff16815260200190815260200160002060008373ffffffffffffffffffffffffffffffffffffffff1673ffffffffffffffffffffffffffffffffffffffff16815260200190815260200160002060009054906101000a900460ff16905092915050565b600073ffffffffffffffffffffffffffffffffffffffff168273ffffffffffffffffffffffffffffffffffffffff1603610dfd5760006040517f64a0ae92000000000000000000000000000000000000000000000000000000008152600401610df49190612079565b60405180910390fd5b6000610e0b838360006110a1565b9050600073ffffffffffffffffffffffffffffffffffffffff168173ffffffffffffffffffffffffffffffffffffffff1614610e7f5760006040517f73c6ac6e000000000000000000000000000000000000000000000000000000008152600401610e769190612079565b60405180910390fd5b505050565b80600660008481526020019081526020016000209081610ea4919061285e565b507ff8e1a15aba9398e019f0b49df1a4fde98ee17ae345cb5f6b5e2c27f5033e8ce782604051610ed49190611e9a565b60405180910390a15050565b60007f80ac58cd000000000000000000000000000000000000000000000000000000007bffffffffffffffffffffffffffffffffffffffffffffffffffffffff1916827bffffffffffffffffffffffffffffffffffffffffffffffffffffffff19161480610fab57507f5b5e139f000000000000000000000000000000000000000000000000000000007bffffffffffffffffffffffffffffffffffffffffffffffffffffffff1916827bffffffffffffffffffffffffffffffffffffffffffffffffffffffff1916145b80610fbb5750610fba8261165b565b5b9050919050565b600080610fce836116c5565b9050600073ffffffffffffffffffffffffffffffffffffffff168173ffffffffffffffffffffffffffffffffffffffff160361104157826040517f7e2732890000000000000000000000000000000000000000000000000000000081526004016110389190611e9a565b60405180910390fd5b80915050919050565b60006004600083815260200190815260200160002060009054906101000a900473ffffffffffffffffffffffffffffffffffffffff169050919050565b600033905090565b61109c8383836001611702565b505050565b6000806110ad846116c5565b9050600073ffffffffffffffffffffffffffffffffffffffff168373ffffffffffffffffffffffffffffffffffffffff16146110ef576110ee8184866118c7565b5b600073ffffffffffffffffffffffffffffffffffffffff168173ffffffffffffffffffffffffffffffffffffffff161461118057611131600085600080611702565b6001600360008373ffffffffffffffffffffffffffffffffffffffff1673ffffffffffffffffffffffffffffffffffffffff168152602001908152602001600020600082825403925050819055505b600073ffffffffffffffffffffffffffffffffffffffff168573ffffffffffffffffffffffffffffffffffffffff1614611203576001600360008773ffffffffffffffffffffffffffffffffffffffff1673ffffffffffffffffffffffffffffffffffffffff168152602001908152602001600020600082825401925050819055505b846002600086815260200190815260200160002060006101000a81548173ffffffffffffffffffffffffffffffffffffffff021916908373ffffffffffffffffffffffffffffffffffffffff160217905550838573ffffffffffffffffffffffffffffffffffffffff168273ffffffffffffffffffffffffffffffffffffffff167fddf252ad1be2c89b69c2b068fc378daa952ba7f163c4a11628f55a4df523b3ef60405160405180910390a4809150509392505050565b600073ffffffffffffffffffffffffffffffffffffffff168273ffffffffffffffffffffffffffffffffffffffff160361132c57816040517f5b08ba180000000000000000000000000000000000000000000000000000000081526004016113239190612079565b60405180910390fd5b80600560008573ffffffffffffffffffffffffffffffffffffffff1673ffffffffffffffffffffffffffffffffffffffff16815260200190815260200160002060008473ffffffffffffffffffffffffffffffffffffffff1673ffffffffffffffffffffffffffffffffffffffff16815260200190815260200160002060006101000a81548160ff0219169083151502179055508173ffffffffffffffffffffffffffffffffffffffff168373ffffffffffffffffffffffffffffffffffffffff167f17307eab39ab6107e8899845ad3d59bd9653f200f220920489ca2b5937696c318360405161141d9190611f55565b60405180910390a3505050565b60008373ffffffffffffffffffffffffffffffffffffffff163b11156115d4578273ffffffffffffffffffffffffffffffffffffffff1663150b7a02868685856040518563ffffffff1660e01b81526004016114899493929190612985565b6020604051808303816000875af19250505080156114c557506040513d601f19601f820116820180604052508101906114c291906129e6565b60015b611549573d80600081146114f5576040519150601f19603f3d011682016040523d82523d6000602084013e6114fa565b606091505b50600081510361154157836040517f64a0ae920000000000000000000000000000000000000000000000000000000081526004016115389190612079565b60405180910390fd5b805181602001fd5b63150b7a0260e01b7bffffffffffffffffffffffffffffffffffffffffffffffffffffffff1916817bffffffffffffffffffffffffffffffffffffffffffffffffffffffff1916146115d257836040517f64a0ae920000000000000000000000000000000000000000000000000000000081526004016115c99190612079565b60405180910390fd5b505b5050505050565b606060405180602001604052806000815250905090565b60606115fd82610fc2565b5060006116086115db565b905060008151116116285760405180602001604052806000815250611653565b806116328461198b565b60405160200161164392919061268e565b6040516020818303038152906040525b915050919050565b60007f01ffc9a7000000000000000000000000000000000000000000000000000000007bffffffffffffffffffffffffffffffffffffffffffffffffffffffff1916827bffffffffffffffffffffffffffffffffffffffffffffffffffffffff1916149050919050565b60006002600083815260200190815260200160002060009054906101000a900473ffffffffffffffffffffffffffffffffffffffff169050919050565b808061173b5750600073ffffffffffffffffffffffffffffffffffffffff168273ffffffffffffffffffffffffffffffffffffffff1614155b1561186f57600061174b84610fc2565b9050600073ffffffffffffffffffffffffffffffffffffffff168373ffffffffffffffffffffffffffffffffffffffff16141580156117b657508273ffffffffffffffffffffffffffffffffffffffff168173ffffffffffffffffffffffffffffffffffffffff1614155b80156117c957506117c78184610cf7565b155b1561180b57826040517fa9fbf51f0000000000000000000000000000000000000000000000000000000081526004016118029190612079565b60405180910390fd5b811561186d57838573ffffffffffffffffffffffffffffffffffffffff168273ffffffffffffffffffffffffffffffffffffffff167f8c5be1e5ebec7d5bd14f71427d1e84f3dd0314c0f7b2291e5b200ac8c7c3b92560405160405180910390a45b505b836004600085815260200190815260200160002060006101000a81548173ffffffffffffffffffffffffffffffffffffffff021916908373ffffffffffffffffffffffffffffffffffffffff16021790555050505050565b6118d2838383611a59565b61198657600073ffffffffffffffffffffffffffffffffffffffff168373ffffffffffffffffffffffffffffffffffffffff160361194757806040517f7e27328900000000000000000000000000000000000000000000000000000000815260040161193e9190611e9a565b60405180910390fd5b81816040517f177e802f00000000000000000000000000000000000000000000000000000000815260040161197d929190612a13565b60405180910390fd5b505050565b60606000600161199a84611b1a565b01905060008167ffffffffffffffff8111156119b9576119b8611cfa565b5b6040519080825280601f01601f1916602001820160405280156119eb5781602001600182028036833780820191505090505b509050600082602001820190505b600115611a4e578080600190039150507f3031323334353637383961626364656600000000000000000000000000000000600a86061a8153600a8581611a4257611a41612a3c565b5b049450600085036119f9575b819350505050919050565b60008073ffffffffffffffffffffffffffffffffffffffff168373ffffffffffffffffffffffffffffffffffffffff1614158015611b1157508273ffffffffffffffffffffffffffffffffffffffff168473ffffffffffffffffffffffffffffffffffffffff161480611ad25750611ad18484610cf7565b5b80611b1057508273ffffffffffffffffffffffffffffffffffffffff16611af88361104a565b73ffffffffffffffffffffffffffffffffffffffff16145b5b90509392505050565b600080600090507a184f03e93ff9f4daa797ed6e38ed64bf6a1f0100000000000000008310611b78577a184f03e93ff9f4daa797ed6e38ed64bf6a1f0100000000000000008381611b6e57611b6d612a3c565b5b0492506040810190505b6d04ee2d6d415b85acef81000000008310611bb5576d04ee2d6d415b85acef81000000008381611bab57611baa612a3c565b5b0492506020810190505b662386f26fc100008310611be457662386f26fc100008381611bda57611bd9612a3c565b5b0492506010810190505b6305f5e1008310611c0d576305f5e1008381611c0357611c02612a3c565b5b0492506008810190505b6127108310611c32576127108381611c2857611c27612a3c565b5b0492506004810190505b60648310611c555760648381611c4b57611c4a612a3c565b5b0492506002810190505b600a8310611c64576001810190505b80915050919050565b6000604051905090565b600080fd5b600080fd5b600073ffffffffffffffffffffffffffffffffffffffff82169050919050565b6000611cac82611c81565b9050919050565b611cbc81611ca1565b8114611cc757600080fd5b50565b600081359050611cd981611cb3565b92915050565b600080fd5b600080fd5b6000601f19601f8301169050919050565b7f4e487b7100000000000000000000000000000000000000000000000000000000600052604160045260246000fd5b611d3282611ce9565b810181811067ffffffffffffffff82111715611d5157611d50611cfa565b5b80604052505050565b6000611d64611c6d565b9050611d708282611d29565b919050565b600067ffffffffffffffff821115611d9057611d8f611cfa565b5b611d9982611ce9565b9050602081019050919050565b82818337600083830152505050565b6000611dc8611dc384611d75565b611d5a565b905082815260208101848484011115611de457611de3611ce4565b5b611def848285611da6565b509392505050565b600082601f830112611e0c57611e0b611cdf565b5b8135611e1c848260208601611db5565b91505092915050565b60008060408385031215611e3c57611e3b611c77565b5b6000611e4a85828601611cca565b925050602083013567ffffffffffffffff811115611e6b57611e6a611c7c565b5b611e7785828601611df7565b9150509250929050565b6000819050919050565b611e9481611e81565b82525050565b6000602082019050611eaf6000830184611e8b565b92915050565b60007fffffffff0000000000000000000000000000000000000000000000000000000082169050919050565b611eea81611eb5565b8114611ef557600080fd5b50565b600081359050611f0781611ee1565b92915050565b600060208284031215611f2357611f22611c77565b5b6000611f3184828501611ef8565b91505092915050565b60008115159050919050565b611f4f81611f3a565b82525050565b6000602082019050611f6a6000830184611f46565b92915050565b600081519050919050565b600082825260208201905092915050565b60005b83811015611faa578082015181840152602081019050611f8f565b60008484015250505050565b6000611fc182611f70565b611fcb8185611f7b565b9350611fdb818560208601611f8c565b611fe481611ce9565b840191505092915050565b600060208201905081810360008301526120098184611fb6565b905092915050565b61201a81611e81565b811461202557600080fd5b50565b60008135905061203781612011565b92915050565b60006020828403121561205357612052611c77565b5b600061206184828501612028565b91505092915050565b61207381611ca1565b82525050565b600060208201905061208e600083018461206a565b92915050565b600080604083850312156120ab576120aa611c77565b5b60006120b985828601611cca565b92505060206120ca85828601612028565b9150509250929050565b6000806000606084860312156120ed576120ec611c77565b5b60006120fb86828701611cca565b935050602061210c86828701611cca565b925050604061211d86828701612028565b9150509250925092565b60006020828403121561213d5761213c611c77565b5b600061214b84828501611cca565b91505092915050565b600081519050919050565b600082825260208201905092915050565b6000819050602082019050919050565b600082825260208201905092915050565b600061219c82611f70565b6121a68185612180565b93506121b6818560208601611f8c565b6121bf81611ce9565b840191505092915050565b60006121d68383612191565b905092915050565b6000602082019050919050565b60006121f682612154565b612200818561215f565b93508360208202850161221285612170565b8060005b8581101561224e578484038952815161222f85826121ca565b945061223a836121de565b925060208a01995050600181019050612216565b50829750879550505050505092915050565b6000602082019050818103600083015261227a81846121eb565b905092915050565b61228b81611f3a565b811461229657600080fd5b50565b6000813590506122a881612282565b92915050565b600080604083850312156122c5576122c4611c77565b5b60006122d385828601611cca565b92505060206122e485828601612299565b9150509250929050565b600067ffffffffffffffff82111561230957612308611cfa565b5b61231282611ce9565b9050602081019050919050565b600061233261232d846122ee565b611d5a565b90508281526020810184848401111561234e5761234d611ce4565b5b612359848285611da6565b509392505050565b600082601f83011261237657612375611cdf565b5b813561238684826020860161231f565b91505092915050565b600080600080608085870312156123a9576123a8611c77565b5b60006123b787828801611cca565b94505060206123c887828801611cca565b93505060406123d987828801612028565b925050606085013567ffffffffffffffff8111156123fa576123f9611c7c565b5b61240687828801612361565b91505092959194509250565b6000806040838503121561242957612428611c77565b5b600061243785828601611cca565b925050602061244885828601611cca565b9150509250929050565b7f4e487b7100000000000000000000000000000000000000000000000000000000600052602160045260246000fd5b6003811061248e57600080fd5b50565b6000815190506124a081612481565b92915050565b6000602082840312156124bc576124bb611c77565b5b60006124ca84828501612491565b91505092915050565b7f4e487b7100000000000000000000000000000000000000000000000000000000600052601160045260246000fd5b600061250d82611e81565b91507fffffffffffffffffffffffffffffffffffffffffffffffffffffffffffffffff820361253f5761253e6124d3565b5b600182019050919050565b7f4e487b7100000000000000000000000000000000000000000000000000000000600052602260045260246000fd5b6000600282049050600182168061259157607f821691505b6020821081036125a4576125a361254a565b5b50919050565b60006060820190506125bf600083018661206a565b6125cc6020830185611e8b565b6125d9604083018461206a565b949350505050565b7f4e487b7100000000000000000000000000000000000000000000000000000000600052603260045260246000fd5b60008151905061261f81612282565b92915050565b60006020828403121561263b5761263a611c77565b5b600061264984828501612610565b91505092915050565b600081905092915050565b600061266882611f70565b6126728185612652565b9350612682818560208601611f8c565b80840191505092915050565b600061269a828561265d565b91506126a6828461265d565b91508190509392505050565b60008190508160005260206000209050919050565b60006020601f8301049050919050565b600082821b905092915050565b6000600883026127147fffffffffffffffffffffffffffffffffffffffffffffffffffffffffffffffff826126d7565b61271e86836126d7565b95508019841693508086168417925050509392505050565b6000819050919050565b600061275b61275661275184611e81565b612736565b611e81565b9050919050565b6000819050919050565b61277583612740565b61278961278182612762565b8484546126e4565b825550505050565b600090565b61279e612791565b6127a981848461276c565b505050565b5b818110156127cd576127c2600082612796565b6001810190506127af565b5050565b601f821115612812576127e3816126b2565b6127ec846126c7565b810160208510156127fb578190505b61280f612807856126c7565b8301826127ae565b50505b505050565b600082821c905092915050565b600061283560001984600802612817565b1980831691505092915050565b600061284e8383612824565b9150826002028217905092915050565b61286782611f70565b67ffffffffffffffff8111156128805761287f611cfa565b5b61288a8254612579565b6128958282856127d1565b600060209050601f8311600181146128c857600084156128b6578287015190505b6128c08582612842565b865550612928565b601f1984166128d6866126b2565b60005b828110156128fe578489015182556001820191506020850194506020810190506128d9565b8683101561291b5784890151612917601f891682612824565b8355505b6001600288020188555050505b505050505050565b600081519050919050565b600082825260208201905092915050565b600061295782612930565b612961818561293b565b9350612971818560208601611f8c565b61297a81611ce9565b840191505092915050565b600060808201905061299a600083018761206a565b6129a7602083018661206a565b6129b46040830185611e8b565b81810360608301526129c6818461294c565b905095945050505050565b6000815190506129e081611ee1565b92915050565b6000602082840312156129fc576129fb611c77565b5b6000612a0a848285016129d1565b91505092915050565b6000604082019050612a28600083018561206a565b612a356020830184611e8b565b9392505050565b7f4e487b7100000000000000000000000000000000000000000000000000000000600052601260045260246000fdfea2646970667358221220221310f178046798e0b074fc2384ad8d5a9e84fc6c0757d020801893defc175864736f6c634300081c0033",
  "linkReferences": {},
  "deployedLinkReferences": {}
}