{
  "_format": "hh-sol-artifact-1",
  "contractName": "CertificateContract",
  "sourceName": "contracts/Certificate.sol",
  "abi": [
    {
      "inputs": [
        {
          "internalType": "address",
          "name": "_roleManagerAddress",
          "type": "address"
        },
        {
          "internalType": "address",
          "name": "_userManagerAddress",
          "type": "address"
        }
      ],
      "stateMutability": "nonpayable",
      "type": "constructor"
    },
    {
      "inputs": [
        {
          "internalType": "address",
          "name": "sender",
          "type": "address"
        },
        {
          "internalType": "uint256",
          "name": "tokenId",
          "type": "uint256"
        },
        {
          "internalType": "address",
          "name": "owner",
          "type": "address"
        }
      ],
      "name": "ERC721IncorrectOwner",
      "type": "error"
    },
    {
      "inputs": [
        {
          "internalType": "address",
          "name": "operator",
          "type": "address"
        },
        {
          "internalType": "uint256",
          "name": "tokenId",
          "type": "uint256"
        }
      ],
      "name": "ERC721InsufficientApproval",
      "type": "error"
    },
    {
      "inputs": [
        {
          "internalType": "address",
          "name": "approver",
          "type": "address"
        }
      ],
      "name": "ERC721InvalidApprover",
      "type": "error"
    },
    {
      "inputs": [
        {
          "internalType": "address",
          "name": "operator",
          "type": "address"
        }
      ],
      "name": "ERC721InvalidOperator",
      "type": "error"
    },
    {
      "inputs": [
        {
          "internalType": "address",
          "name": "owner",
          "type": "address"
        }
      ],
      "name": "ERC721InvalidOwner",
      "type": "error"
    },
    {
      "inputs": [
        {
          "internalType": "address",
          "name": "receiver",
          "type": "address"
        }
      ],
      "name": "ERC721InvalidReceiver",
      "type": "error"
    },
    {
      "inputs": [
        {
          "internalType": "address",
          "name": "sender",
          "type": "address"
        }
      ],
      "name": "ERC721InvalidSender",
      "type": "error"
    },
    {
      "inputs": [
        {
          "internalType": "uint256",
          "name": "tokenId",
          "type": "uint256"
        }
      ],
      "name": "ERC721NonexistentToken",
      "type": "error"
    },
    {
      "anonymous": false,
      "inputs": [
        {
          "indexed": true,
          "internalType": "address",
          "name": "owner",
          "type": "address"
        },
        {
          "indexed": true,
          "internalType": "address",
          "name": "approved",
          "type": "address"
        },
        {
          "indexed": true,
          "internalType": "uint256",
          "name": "tokenId",
          "type": "uint256"
        }
      ],
      "name": "Approval",
      "type": "event"
    },
    {
      "anonymous": false,
      "inputs": [
        {
          "indexed": true,
          "internalType": "address",
          "name": "owner",
          "type": "address"
        },
        {
          "indexed": true,
          "internalType": "address",
          "name": "operator",
          "type": "address"
        },
        {
          "indexed": false,
          "internalType": "bool",
          "name": "approved",
          "type": "bool"
        }
      ],
      "name": "ApprovalForAll",
      "type": "event"
    },
    {
      "anonymous": false,
      "inputs": [
        {
          "indexed": false,
          "internalType": "uint256",
          "name": "_fromTokenId",
          "type": "uint256"
        },
        {
          "indexed": false,
          "internalType": "uint256",
          "name": "_toTokenId",
          "type": "uint256"
        }
      ],
      "name": "BatchMetadataUpdate",
      "type": "event"
    },
    {
      "anonymous": false,
      "inputs": [
        {
          "indexed": false,
          "internalType": "uint256",
          "name": "_tokenId",
          "type": "uint256"
        }
      ],
      "name": "MetadataUpdate",
      "type": "event"
    },
    {
      "anonymous": false,
      "inputs": [
        {
          "indexed": true,
          "internalType": "address",
          "name": "from",
          "type": "address"
        },
        {
          "indexed": true,
          "internalType": "address",
          "name": "to",
          "type": "address"
        },
        {
          "indexed": true,
          "internalType": "uint256",
          "name": "tokenId",
          "type": "uint256"
        }
      ],
      "name": "Transfer",
      "type": "event"
    },
    {
      "inputs": [
        {
          "internalType": "address",
          "name": "to",
          "type": "address"
        },
        {
          "internalType": "uint256",
          "name": "tokenId",
          "type": "uint256"
        }
      ],
      "name": "approve",
      "outputs": [],
      "stateMutability": "nonpayable",
      "type": "function"
    },
    {
      "inputs": [
        {
          "internalType": "address",
          "name": "owner",
          "type": "address"
        }
      ],
      "name": "balanceOf",
      "outputs": [
        {
          "internalType": "uint256",
          "name": "",
          "type": "uint256"
        }
      ],
      "stateMutability": "view",
      "type": "function"
    },
    {
      "inputs": [
        {
          "internalType": "address",
          "name": "userAddr",
          "type": "address"
        },
        {
          "internalType": "string",
          "name": "tokenURI",
          "type": "string"
        }
      ],
      "name": "createCertificate",
      "outputs": [
        {
          "internalType": "uint256",
          "name": "",
          "type": "uint256"
        }
      ],
      "stateMutability": "nonpayable",
      "type": "function"
    },
    {
      "inputs": [
        {
          "internalType": "uint256",
          "name": "tokenId",
          "type": "uint256"
        }
      ],
      "name": "getApproved",
      "outputs": [
        {
          "internalType": "address",
          "name": "",
          "type": "address"
        }
      ],
      "stateMutability": "view",
      "type": "function"
    },
    {
      "inputs": [
        {
          "internalType": "address",
          "name": "owner",
          "type": "address"
        },
        {
          "internalType": "address",
          "name": "operator",
          "type": "address"
        }
      ],
      "name": "isApprovedForAll",
      "outputs": [
        {
          "internalType": "bool",
          "name": "",
          "type": "bool"
        }
      ],
      "stateMutability": "view",
      "type": "function"
    },
    {
      "inputs": [
        {
          "internalType": "address",
          "name": "userAddr",
          "type": "address"
        }
      ],
      "name": "listAllCertificatesOfUser",
      "outputs": [
        {
          "internalType": "string[][]",
          "name": "",
          "type": "string[][]"
        }
      ],
      "stateMutability": "view",
      "type": "function"
    },
    {
      "inputs": [],
      "name": "name",
      "outputs": [
        {
          "internalType": "string",
          "name": "",
          "type": "string"
        }
      ],
      "stateMutability": "view",
      "type": "function"
    },
    {
      "inputs": [
        {
          "internalType": "uint256",
          "name": "tokenId",
          "type": "uint256"
        }
      ],
      "name": "ownerOf",
      "outputs": [
        {
          "internalType": "address",
          "name": "",
          "type": "address"
        }
      ],
      "stateMutability": "view",
      "type": "function"
    },
    {
      "inputs": [
        {
          "internalType": "address",
          "name": "from",
          "type": "address"
        },
        {
          "internalType": "address",
          "name": "to",
          "type": "address"
        },
        {
          "internalType": "uint256",
          "name": "tokenId",
          "type": "uint256"
        }
      ],
      "name": "safeTransferFrom",
      "outputs": [],
      "stateMutability": "nonpayable",
      "type": "function"
    },
    {
      "inputs": [
        {
          "internalType": "address",
          "name": "from",
          "type": "address"
        },
        {
          "internalType": "address",
          "name": "to",
          "type": "address"
        },
        {
          "internalType": "uint256",
          "name": "tokenId",
          "type": "uint256"
        },
        {
          "internalType": "bytes",
          "name": "data",
          "type": "bytes"
        }
      ],
      "name": "safeTransferFrom",
      "outputs": [],
      "stateMutability": "nonpayable",
      "type": "function"
    },
    {
      "inputs": [
        {
          "internalType": "address",
          "name": "operator",
          "type": "address"
        },
        {
          "internalType": "bool",
          "name": "approved",
          "type": "bool"
        }
      ],
      "name": "setApprovalForAll",
      "outputs": [],
      "stateMutability": "nonpayable",
      "type": "function"
    },
    {
      "inputs": [
        {
          "internalType": "string",
          "name": "userTokenUri",
          "type": "string"
        }
      ],
      "name": "setCertificatePrivate",
      "outputs": [],
      "stateMutability": "nonpayable",
      "type": "function"
    },
    {
      "inputs": [
        {
          "internalType": "string",
          "name": "userTokenUri",
          "type": "string"
        }
      ],
      "name": "setCertificatePublic",
      "outputs": [],
      "stateMutability": "nonpayable",
      "type": "function"
    },
    {
      "inputs": [
        {
          "internalType": "bytes4",
          "name": "interfaceId",
          "type": "bytes4"
        }
      ],
      "name": "supportsInterface",
      "outputs": [
        {
          "internalType": "bool",
          "name": "",
          "type": "bool"
        }
      ],
      "stateMutability": "view",
      "type": "function"
    },
    {
      "inputs": [],
      "name": "symbol",
      "outputs": [
        {
          "internalType": "string",
          "name": "",
          "type": "string"
        }
      ],
      "stateMutability": "view",
      "type": "function"
    },
    {
      "inputs": [
        {
          "internalType": "uint256",
          "name": "tokenId",
          "type": "uint256"
        }
      ],
      "name": "tokenURI",
      "outputs": [
        {
          "internalType": "string",
          "name": "",
          "type": "string"
        }
      ],
      "stateMutability": "view",
      "type": "function"
    },
    {
      "inputs": [
        {
          "internalType": "address",
          "name": "from",
          "type": "address"
        },
        {
          "internalType": "address",
          "name": "to",
          "type": "address"
        },
        {
          "internalType": "uint256",
          "name": "tokenId",
          "type": "uint256"
        }
      ],
      "name": "transferFrom",
      "outputs": [],
      "stateMutability": "nonpayable",
      "type": "function"
    }
  ],
  "bytecode": "0x608060405234801561001057600080fd5b50604051613903380380613903833981810160405281019061003291906101ac565b6040518060400160405280601281526020017f45647550617373436572746966696361746500000000000000000000000000008152506040518060400160405280600381526020017f455043000000000000000000000000000000000000000000000000000000000081525081600090816100ad919061043c565b5080600190816100bd919061043c565b50505081600760006101000a81548173ffffffffffffffffffffffffffffffffffffffff021916908373ffffffffffffffffffffffffffffffffffffffff16021790555080600860006101000a81548173ffffffffffffffffffffffffffffffffffffffff021916908373ffffffffffffffffffffffffffffffffffffffff160217905550505061050e565b600080fd5b600073ffffffffffffffffffffffffffffffffffffffff82169050919050565b60006101798261014e565b9050919050565b6101898161016e565b811461019457600080fd5b50565b6000815190506101a681610180565b92915050565b600080604083850312156101c3576101c2610149565b5b60006101d185828601610197565b92505060206101e285828601610197565b9150509250929050565b600081519050919050565b7f4e487b7100000000000000000000000000000000000000000000000000000000600052604160045260246000fd5b7f4e487b7100000000000000000000000000000000000000000000000000000000600052602260045260246000fd5b6000600282049050600182168061026d57607f821691505b6020821081036102805761027f610226565b5b50919050565b60008190508160005260206000209050919050565b60006020601f8301049050919050565b600082821b905092915050565b6000600883026102e87fffffffffffffffffffffffffffffffffffffffffffffffffffffffffffffffff826102ab565b6102f286836102ab565b95508019841693508086168417925050509392505050565b6000819050919050565b6000819050919050565b600061033961033461032f8461030a565b610314565b61030a565b9050919050565b6000819050919050565b6103538361031e565b61036761035f82610340565b8484546102b8565b825550505050565b600090565b61037c61036f565b61038781848461034a565b505050565b5b818110156103ab576103a0600082610374565b60018101905061038d565b5050565b601f8211156103f0576103c181610286565b6103ca8461029b565b810160208510156103d9578190505b6103ed6103e58561029b565b83018261038c565b50505b505050565b600082821c905092915050565b6000610413600019846008026103f5565b1980831691505092915050565b600061042c8383610402565b9150826002028217905092915050565b610445826101ec565b67ffffffffffffffff81111561045e5761045d6101f7565b5b6104688254610255565b6104738282856103af565b600060209050601f8311600181146104a65760008415610494578287015190505b61049e8582610420565b865550610506565b601f1984166104b486610286565b60005b828110156104dc578489015182556001820191506020850194506020810190506104b7565b868310156104f957848901516104f5601f891682610402565b8355505b6001600288020188555050505b505050505050565b6133e68061051d6000396000f3fe608060405234801561001057600080fd5b506004361061010a5760003560e01c80636352211e116100a2578063a22cb46511610071578063a22cb465146102db578063b88d4fde146102f7578063c87b56dd14610313578063cb3ca0a714610343578063e985e9c51461035f5761010a565b80636352211e1461022d57806370a082311461025d578063954a68831461028d57806395d89b41146102bd5761010a565b8063095ea7b3116100de578063095ea7b3146101bd57806323b872dd146101d957806342842e0e146101f55780635359563d146102115761010a565b8062896eee1461010f57806301ffc9a71461013f57806306fdde031461016f578063081812fc1461018d575b600080fd5b6101296004803603810190610124919061268a565b61038f565b60405161013691906126ff565b60405180910390f35b61015960048036038101906101549190612772565b6105b9565b60405161016691906127ba565b60405180910390f35b61017761061a565b6040516101849190612854565b60405180910390f35b6101a760048036038101906101a291906128a2565b6106ac565b6040516101b491906128de565b60405180910390f35b6101d760048036038101906101d291906128f9565b6106c8565b005b6101f360048036038101906101ee9190612939565b6106de565b005b61020f600480360381019061020a9190612939565b6107e0565b005b61022b6004803603810190610226919061298c565b610800565b005b610247600480360381019061024291906128a2565b610b06565b60405161025491906128de565b60405180910390f35b610277600480360381019061027291906129d5565b610b18565b60405161028491906126ff565b60405180910390f35b6102a760048036038101906102a291906129d5565b610bd2565b6040516102b49190612bd0565b60405180910390f35b6102c5611076565b6040516102d29190612854565b60405180910390f35b6102f560048036038101906102f09190612c1e565b611108565b005b610311600480360381019061030c9190612cff565b61111e565b005b61032d600480360381019061032891906128a2565b611143565b60405161033a9190612854565b60405180910390f35b61035d6004803603810190610358919061298c565b611256565b005b61037960048036038101906103749190612d82565b61155c565b60405161038691906127ba565b60405180910390f35b600060018060028111156103a6576103a5612dc2565b5b600760009054906101000a900473ffffffffffffffffffffffffffffffffffffffff1673ffffffffffffffffffffffffffffffffffffffff166344276733336040518263ffffffff1660e01b815260040161040191906128de565b602060405180830381865afa15801561041e573d6000803e3d6000fd5b505050506040513d601f19601f820116820180604052508101906104429190612e16565b600281111561045457610453612dc2565b5b146040518060400160405280600c81526020017f554e415554484f52495a45440000000000000000000000000000000000000000815250906104cc576040517f08c379a00000000000000000000000000000000000000000000000000000000081526004016104c39190612854565b60405180910390fd5b506000600960008154809291906104e290612e72565b9190505590506104f285826115f0565b6104fc81856116e9565b60006040518060400160405280838152602001600015158152509050600a60008773ffffffffffffffffffffffffffffffffffffffff1673ffffffffffffffffffffffffffffffffffffffff1681526020019081526020016000208190806001815401808255809150506001900390600052602060002090600202016000909190919091506000820151816000015560208201518160010160006101000a81548160ff021916908315150217905550505081935050505092915050565b6000634906490660e01b7bffffffffffffffffffffffffffffffffffffffffffffffffffffffff1916827bffffffffffffffffffffffffffffffffffffffffffffffffffffffff19161480610613575061061282611745565b5b9050919050565b60606000805461062990612ee9565b80601f016020809104026020016040519081016040528092919081815260200182805461065590612ee9565b80156106a25780601f10610677576101008083540402835291602001916106a2565b820191906000526020600020905b81548152906001019060200180831161068557829003601f168201915b5050505050905090565b60006106b782611827565b506106c1826118af565b9050919050565b6106da82826106d56118ec565b6118f4565b5050565b600073ffffffffffffffffffffffffffffffffffffffff168273ffffffffffffffffffffffffffffffffffffffff16036107505760006040517f64a0ae9200000000000000000000000000000000000000000000000000000000815260040161074791906128de565b60405180910390fd5b6000610764838361075f6118ec565b611906565b90508373ffffffffffffffffffffffffffffffffffffffff168173ffffffffffffffffffffffffffffffffffffffff16146107da578382826040517f64283d7b0000000000000000000000000000000000000000000000000000000081526004016107d193929190612f1a565b60405180910390fd5b50505050565b6107fb8383836040518060200160405280600081525061111e565b505050565b3381600080600a60008573ffffffffffffffffffffffffffffffffffffffff1673ffffffffffffffffffffffffffffffffffffffff168152602001908152602001600020805480602002602001604051908101604052809291908181526020016000905b828210156108bb5783829060005260206000209060020201604051806040016040529081600082015481526020016001820160009054906101000a900460ff16151515158152505081526020019060010190610864565b50505050905060005b815181101561095c57836040516020016108de9190612f8d565b6040516020818303038152906040528051906020012061091b83838151811061090a57610909612fa4565b5b602002602001015160000151611143565b60405160200161092b9190612f8d565b604051602081830303815290604052805190602001200361094f576001925061095c565b80806001019150506108c4565b5060011515821515146040518060400160405280600c81526020017f554e415554484f52495a45440000000000000000000000000000000000000000815250906109dc576040517f08c379a00000000000000000000000000000000000000000000000000000000081526004016109d39190612854565b60405180910390fd5b506000600a60003373ffffffffffffffffffffffffffffffffffffffff1673ffffffffffffffffffffffffffffffffffffffff168152602001908152602001600020905060005b8180549050811015610afd5786604051602001610a409190612f8d565b60405160208183030381529060405280519060200120610a83838381548110610a6c57610a6b612fa4565b5b906000526020600020906002020160000154611143565b604051602001610a939190612f8d565b6040516020818303038152906040528051906020012003610af0576001828281548110610ac357610ac2612fa4565b5b906000526020600020906002020160010160006101000a81548160ff021916908315150217905550610afd565b8080600101915050610a23565b50505050505050565b6000610b1182611827565b9050919050565b60008073ffffffffffffffffffffffffffffffffffffffff168273ffffffffffffffffffffffffffffffffffffffff1603610b8b5760006040517f89c62b64000000000000000000000000000000000000000000000000000000008152600401610b8291906128de565b60405180910390fd5b600360008373ffffffffffffffffffffffffffffffffffffffff1673ffffffffffffffffffffffffffffffffffffffff168152602001908152602001600020549050919050565b60606000600a60008473ffffffffffffffffffffffffffffffffffffffff1673ffffffffffffffffffffffffffffffffffffffff168152602001908152602001600020805480602002602001604051908101604052809291908181526020016000905b82821015610c8c5783829060005260206000209060020201604051806040016040529081600082015481526020016001820160009054906101000a900460ff16151515158152505081526020019060010190610c35565b5050505090506000815167ffffffffffffffff811115610caf57610cae61255f565b5b604051908082528060200260200182016040528015610ce257816020015b6060815260200190600190039081610ccd5790505b5090506000805b8351811015610fc5573373ffffffffffffffffffffffffffffffffffffffff168673ffffffffffffffffffffffffffffffffffffffff16148015610d495750838181518110610d3b57610d3a612fa4565b5b602002602001015160200151155b80610e13575060006002811115610d6357610d62612dc2565b5b600760009054906101000a900473ffffffffffffffffffffffffffffffffffffffff1673ffffffffffffffffffffffffffffffffffffffff166344276733336040518263ffffffff1660e01b8152600401610dbe91906128de565b602060405180830381865afa158015610ddb573d6000803e3d6000fd5b505050506040513d601f19601f82011682018060405250810190610dff9190612e16565b6002811115610e1157610e10612dc2565b5b145b80610e395750838181518110610e2c57610e2b612fa4565b5b6020026020010151602001515b15610fb8576000600267ffffffffffffffff811115610e5b57610e5a61255f565b5b604051908082528060200260200182016040528015610e8e57816020015b6060815260200190600190039081610e795790505b509050610eb8858381518110610ea757610ea6612fa4565b5b602002602001015160000151611143565b81600081518110610ecc57610ecb612fa4565b5b6020026020010181905250848281518110610eea57610ee9612fa4565b5b602002602001015160200151610f35576040518060400160405280600181526020017f3000000000000000000000000000000000000000000000000000000000000000815250610f6c565b6040518060400160405280600181526020017f31000000000000000000000000000000000000000000000000000000000000008152505b81600181518110610f8057610f7f612fa4565b5b602002602001018190525080848480610f9890612e72565b955081518110610fab57610faa612fa4565b5b6020026020010181905250505b8080600101915050610ce9565b5060008167ffffffffffffffff811115610fe257610fe161255f565b5b60405190808252806020026020018201604052801561101557816020015b60608152602001906001900390816110005790505b50905060005b828110156110695783818151811061103657611035612fa4565b5b602002602001015182828151811061105157611050612fa4565b5b6020026020010181905250808060010191505061101b565b5080945050505050919050565b60606001805461108590612ee9565b80601f01602080910402602001604051908101604052809291908181526020018280546110b190612ee9565b80156110fe5780601f106110d3576101008083540402835291602001916110fe565b820191906000526020600020905b8154815290600101906020018083116110e157829003601f168201915b5050505050905090565b61111a6111136118ec565b8383611b20565b5050565b6111298484846106de565b61113d6111346118ec565b85858585611c8f565b50505050565b606061114e82611827565b50600060066000848152602001908152602001600020805461116f90612ee9565b80601f016020809104026020016040519081016040528092919081815260200182805461119b90612ee9565b80156111e85780601f106111bd576101008083540402835291602001916111e8565b820191906000526020600020905b8154815290600101906020018083116111cb57829003601f168201915b5050505050905060006111f9611e40565b9050600081510361120e578192505050611251565b60008251111561124357808260405160200161122b929190612fd3565b60405160208183030381529060405292505050611251565b61124c84611e57565b925050505b919050565b3381600080600a60008573ffffffffffffffffffffffffffffffffffffffff1673ffffffffffffffffffffffffffffffffffffffff168152602001908152602001600020805480602002602001604051908101604052809291908181526020016000905b828210156113115783829060005260206000209060020201604051806040016040529081600082015481526020016001820160009054906101000a900460ff161515151581525050815260200190600101906112ba565b50505050905060005b81518110156113b257836040516020016113349190612f8d565b604051602081830303815290604052805190602001206113718383815181106113605761135f612fa4565b5b602002602001015160000151611143565b6040516020016113819190612f8d565b60405160208183030381529060405280519060200120036113a557600192506113b2565b808060010191505061131a565b5060011515821515146040518060400160405280600c81526020017f554e415554484f52495a4544000000000000000000000000000000000000000081525090611432576040517f08c379a00000000000000000000000000000000000000000000000000000000081526004016114299190612854565b60405180910390fd5b506000600a60003373ffffffffffffffffffffffffffffffffffffffff1673ffffffffffffffffffffffffffffffffffffffff168152602001908152602001600020905060005b818054905081101561155357866040516020016114969190612f8d565b604051602081830303815290604052805190602001206114d98383815481106114c2576114c1612fa4565b5b906000526020600020906002020160000154611143565b6040516020016114e99190612f8d565b604051602081830303815290604052805190602001200361154657600082828154811061151957611518612fa4565b5b906000526020600020906002020160010160006101000a81548160ff021916908315150217905550611553565b8080600101915050611479565b50505050505050565b6000600560008473ffffffffffffffffffffffffffffffffffffffff1673ffffffffffffffffffffffffffffffffffffffff16815260200190815260200160002060008373ffffffffffffffffffffffffffffffffffffffff1673ffffffffffffffffffffffffffffffffffffffff16815260200190815260200160002060009054906101000a900460ff16905092915050565b600073ffffffffffffffffffffffffffffffffffffffff168273ffffffffffffffffffffffffffffffffffffffff16036116625760006040517f64a0ae9200000000000000000000000000000000000000000000000000000000815260040161165991906128de565b60405180910390fd5b600061167083836000611906565b9050600073ffffffffffffffffffffffffffffffffffffffff168173ffffffffffffffffffffffffffffffffffffffff16146116e45760006040517f73c6ac6e0000000000000000000000000000000000000000000000000000000081526004016116db91906128de565b60405180910390fd5b505050565b8060066000848152602001908152602001600020908161170991906131a3565b507ff8e1a15aba9398e019f0b49df1a4fde98ee17ae345cb5f6b5e2c27f5033e8ce78260405161173991906126ff565b60405180910390a15050565b60007f80ac58cd000000000000000000000000000000000000000000000000000000007bffffffffffffffffffffffffffffffffffffffffffffffffffffffff1916827bffffffffffffffffffffffffffffffffffffffffffffffffffffffff1916148061181057507f5b5e139f000000000000000000000000000000000000000000000000000000007bffffffffffffffffffffffffffffffffffffffffffffffffffffffff1916827bffffffffffffffffffffffffffffffffffffffffffffffffffffffff1916145b80611820575061181f82611ec0565b5b9050919050565b60008061183383611f2a565b9050600073ffffffffffffffffffffffffffffffffffffffff168173ffffffffffffffffffffffffffffffffffffffff16036118a657826040517f7e27328900000000000000000000000000000000000000000000000000000000815260040161189d91906126ff565b60405180910390fd5b80915050919050565b60006004600083815260200190815260200160002060009054906101000a900473ffffffffffffffffffffffffffffffffffffffff169050919050565b600033905090565b6119018383836001611f67565b505050565b60008061191284611f2a565b9050600073ffffffffffffffffffffffffffffffffffffffff168373ffffffffffffffffffffffffffffffffffffffff16146119545761195381848661212c565b5b600073ffffffffffffffffffffffffffffffffffffffff168173ffffffffffffffffffffffffffffffffffffffff16146119e557611996600085600080611f67565b6001600360008373ffffffffffffffffffffffffffffffffffffffff1673ffffffffffffffffffffffffffffffffffffffff168152602001908152602001600020600082825403925050819055505b600073ffffffffffffffffffffffffffffffffffffffff168573ffffffffffffffffffffffffffffffffffffffff1614611a68576001600360008773ffffffffffffffffffffffffffffffffffffffff1673ffffffffffffffffffffffffffffffffffffffff168152602001908152602001600020600082825401925050819055505b846002600086815260200190815260200160002060006101000a81548173ffffffffffffffffffffffffffffffffffffffff021916908373ffffffffffffffffffffffffffffffffffffffff160217905550838573ffffffffffffffffffffffffffffffffffffffff168273ffffffffffffffffffffffffffffffffffffffff167fddf252ad1be2c89b69c2b068fc378daa952ba7f163c4a11628f55a4df523b3ef60405160405180910390a4809150509392505050565b600073ffffffffffffffffffffffffffffffffffffffff168273ffffffffffffffffffffffffffffffffffffffff1603611b9157816040517f5b08ba18000000000000000000000000000000000000000000000000000000008152600401611b8891906128de565b60405180910390fd5b80600560008573ffffffffffffffffffffffffffffffffffffffff1673ffffffffffffffffffffffffffffffffffffffff16815260200190815260200160002060008473ffffffffffffffffffffffffffffffffffffffff1673ffffffffffffffffffffffffffffffffffffffff16815260200190815260200160002060006101000a81548160ff0219169083151502179055508173ffffffffffffffffffffffffffffffffffffffff168373ffffffffffffffffffffffffffffffffffffffff167f17307eab39ab6107e8899845ad3d59bd9653f200f220920489ca2b5937696c3183604051611c8291906127ba565b60405180910390a3505050565b60008373ffffffffffffffffffffffffffffffffffffffff163b1115611e39578273ffffffffffffffffffffffffffffffffffffffff1663150b7a02868685856040518563ffffffff1660e01b8152600401611cee94939291906132ca565b6020604051808303816000875af1925050508015611d2a57506040513d601f19601f82011682018060405250810190611d27919061332b565b60015b611dae573d8060008114611d5a576040519150601f19603f3d011682016040523d82523d6000602084013e611d5f565b606091505b506000815103611da657836040517f64a0ae92000000000000000000000000000000000000000000000000000000008152600401611d9d91906128de565b60405180910390fd5b805181602001fd5b63150b7a0260e01b7bffffffffffffffffffffffffffffffffffffffffffffffffffffffff1916817bffffffffffffffffffffffffffffffffffffffffffffffffffffffff191614611e3757836040517f64a0ae92000000000000000000000000000000000000000000000000000000008152600401611e2e91906128de565b60405180910390fd5b505b5050505050565b606060405180602001604052806000815250905090565b6060611e6282611827565b506000611e6d611e40565b90506000815111611e8d5760405180602001604052806000815250611eb8565b80611e97846121f0565b604051602001611ea8929190612fd3565b6040516020818303038152906040525b915050919050565b60007f01ffc9a7000000000000000000000000000000000000000000000000000000007bffffffffffffffffffffffffffffffffffffffffffffffffffffffff1916827bffffffffffffffffffffffffffffffffffffffffffffffffffffffff1916149050919050565b60006002600083815260200190815260200160002060009054906101000a900473ffffffffffffffffffffffffffffffffffffffff169050919050565b8080611fa05750600073ffffffffffffffffffffffffffffffffffffffff168273ffffffffffffffffffffffffffffffffffffffff1614155b156120d4576000611fb084611827565b9050600073ffffffffffffffffffffffffffffffffffffffff168373ffffffffffffffffffffffffffffffffffffffff161415801561201b57508273ffffffffffffffffffffffffffffffffffffffff168173ffffffffffffffffffffffffffffffffffffffff1614155b801561202e575061202c818461155c565b155b1561207057826040517fa9fbf51f00000000000000000000000000000000000000000000000000000000815260040161206791906128de565b60405180910390fd5b81156120d257838573ffffffffffffffffffffffffffffffffffffffff168273ffffffffffffffffffffffffffffffffffffffff167f8c5be1e5ebec7d5bd14f71427d1e84f3dd0314c0f7b2291e5b200ac8c7c3b92560405160405180910390a45b505b836004600085815260200190815260200160002060006101000a81548173ffffffffffffffffffffffffffffffffffffffff021916908373ffffffffffffffffffffffffffffffffffffffff16021790555050505050565b6121378383836122be565b6121eb57600073ffffffffffffffffffffffffffffffffffffffff168373ffffffffffffffffffffffffffffffffffffffff16036121ac57806040517f7e2732890000000000000000000000000000000000000000000000000000000081526004016121a391906126ff565b60405180910390fd5b81816040517f177e802f0000000000000000000000000000000000000000000000000000000081526004016121e2929190613358565b60405180910390fd5b505050565b6060600060016121ff8461237f565b01905060008167ffffffffffffffff81111561221e5761221d61255f565b5b6040519080825280601f01601f1916602001820160405280156122505781602001600182028036833780820191505090505b509050600082602001820190505b6001156122b3578080600190039150507f3031323334353637383961626364656600000000000000000000000000000000600a86061a8153600a85816122a7576122a6613381565b5b0494506000850361225e575b819350505050919050565b60008073ffffffffffffffffffffffffffffffffffffffff168373ffffffffffffffffffffffffffffffffffffffff161415801561237657508273ffffffffffffffffffffffffffffffffffffffff168473ffffffffffffffffffffffffffffffffffffffff1614806123375750612336848461155c565b5b8061237557508273ffffffffffffffffffffffffffffffffffffffff1661235d836118af565b73ffffffffffffffffffffffffffffffffffffffff16145b5b90509392505050565b600080600090507a184f03e93ff9f4daa797ed6e38ed64bf6a1f01000000000000000083106123dd577a184f03e93ff9f4daa797ed6e38ed64bf6a1f01000000000000000083816123d3576123d2613381565b5b0492506040810190505b6d04ee2d6d415b85acef8100000000831061241a576d04ee2d6d415b85acef810000000083816124105761240f613381565b5b0492506020810190505b662386f26fc10000831061244957662386f26fc10000838161243f5761243e613381565b5b0492506010810190505b6305f5e1008310612472576305f5e100838161246857612467613381565b5b0492506008810190505b612710831061249757612710838161248d5761248c613381565b5b0492506004810190505b606483106124ba57606483816124b0576124af613381565b5b0492506002810190505b600a83106124c9576001810190505b80915050919050565b6000604051905090565b600080fd5b600080fd5b600073ffffffffffffffffffffffffffffffffffffffff82169050919050565b6000612511826124e6565b9050919050565b61252181612506565b811461252c57600080fd5b50565b60008135905061253e81612518565b92915050565b600080fd5b600080fd5b6000601f19601f8301169050919050565b7f4e487b7100000000000000000000000000000000000000000000000000000000600052604160045260246000fd5b6125978261254e565b810181811067ffffffffffffffff821117156125b6576125b561255f565b5b80604052505050565b60006125c96124d2565b90506125d5828261258e565b919050565b600067ffffffffffffffff8211156125f5576125f461255f565b5b6125fe8261254e565b9050602081019050919050565b82818337600083830152505050565b600061262d612628846125da565b6125bf565b90508281526020810184848401111561264957612648612549565b5b61265484828561260b565b509392505050565b600082601f83011261267157612670612544565b5b813561268184826020860161261a565b91505092915050565b600080604083850312156126a1576126a06124dc565b5b60006126af8582860161252f565b925050602083013567ffffffffffffffff8111156126d0576126cf6124e1565b5b6126dc8582860161265c565b9150509250929050565b6000819050919050565b6126f9816126e6565b82525050565b600060208201905061271460008301846126f0565b92915050565b60007fffffffff0000000000000000000000000000000000000000000000000000000082169050919050565b61274f8161271a565b811461275a57600080fd5b50565b60008135905061276c81612746565b92915050565b600060208284031215612788576127876124dc565b5b60006127968482850161275d565b91505092915050565b60008115159050919050565b6127b48161279f565b82525050565b60006020820190506127cf60008301846127ab565b92915050565b600081519050919050565b600082825260208201905092915050565b60005b8381101561280f5780820151818401526020810190506127f4565b60008484015250505050565b6000612826826127d5565b61283081856127e0565b93506128408185602086016127f1565b6128498161254e565b840191505092915050565b6000602082019050818103600083015261286e818461281b565b905092915050565b61287f816126e6565b811461288a57600080fd5b50565b60008135905061289c81612876565b92915050565b6000602082840312156128b8576128b76124dc565b5b60006128c68482850161288d565b91505092915050565b6128d881612506565b82525050565b60006020820190506128f360008301846128cf565b92915050565b600080604083850312156129105761290f6124dc565b5b600061291e8582860161252f565b925050602061292f8582860161288d565b9150509250929050565b600080600060608486031215612952576129516124dc565b5b60006129608682870161252f565b93505060206129718682870161252f565b92505060406129828682870161288d565b9150509250925092565b6000602082840312156129a2576129a16124dc565b5b600082013567ffffffffffffffff8111156129c0576129bf6124e1565b5b6129cc8482850161265c565b91505092915050565b6000602082840312156129eb576129ea6124dc565b5b60006129f98482850161252f565b91505092915050565b600081519050919050565b600082825260208201905092915050565b6000819050602082019050919050565b600081519050919050565b600082825260208201905092915050565b6000819050602082019050919050565b600082825260208201905092915050565b6000612a76826127d5565b612a808185612a5a565b9350612a908185602086016127f1565b612a998161254e565b840191505092915050565b6000612ab08383612a6b565b905092915050565b6000602082019050919050565b6000612ad082612a2e565b612ada8185612a39565b935083602082028501612aec85612a4a565b8060005b85811015612b285784840389528151612b098582612aa4565b9450612b1483612ab8565b925060208a01995050600181019050612af0565b50829750879550505050505092915050565b6000612b468383612ac5565b905092915050565b6000602082019050919050565b6000612b6682612a02565b612b708185612a0d565b935083602082028501612b8285612a1e565b8060005b85811015612bbe5784840389528151612b9f8582612b3a565b9450612baa83612b4e565b925060208a01995050600181019050612b86565b50829750879550505050505092915050565b60006020820190508181036000830152612bea8184612b5b565b905092915050565b612bfb8161279f565b8114612c0657600080fd5b50565b600081359050612c1881612bf2565b92915050565b60008060408385031215612c3557612c346124dc565b5b6000612c438582860161252f565b9250506020612c5485828601612c09565b9150509250929050565b600067ffffffffffffffff821115612c7957612c7861255f565b5b612c828261254e565b9050602081019050919050565b6000612ca2612c9d84612c5e565b6125bf565b905082815260208101848484011115612cbe57612cbd612549565b5b612cc984828561260b565b509392505050565b600082601f830112612ce657612ce5612544565b5b8135612cf6848260208601612c8f565b91505092915050565b60008060008060808587031215612d1957612d186124dc565b5b6000612d278782880161252f565b9450506020612d388782880161252f565b9350506040612d498782880161288d565b925050606085013567ffffffffffffffff811115612d6a57612d696124e1565b5b612d7687828801612cd1565b91505092959194509250565b60008060408385031215612d9957612d986124dc565b5b6000612da78582860161252f565b9250506020612db88582860161252f565b9150509250929050565b7f4e487b7100000000000000000000000000000000000000000000000000000000600052602160045260246000fd5b60038110612dfe57600080fd5b50565b600081519050612e1081612df1565b92915050565b600060208284031215612e2c57612e2b6124dc565b5b6000612e3a84828501612e01565b91505092915050565b7f4e487b7100000000000000000000000000000000000000000000000000000000600052601160045260246000fd5b6000612e7d826126e6565b91507fffffffffffffffffffffffffffffffffffffffffffffffffffffffffffffffff8203612eaf57612eae612e43565b5b600182019050919050565b7f4e487b7100000000000000000000000000000000000000000000000000000000600052602260045260246000fd5b60006002820490506001821680612f0157607f821691505b602082108103612f1457612f13612eba565b5b50919050565b6000606082019050612f2f60008301866128cf565b612f3c60208301856126f0565b612f4960408301846128cf565b949350505050565b600081905092915050565b6000612f67826127d5565b612f718185612f51565b9350612f818185602086016127f1565b80840191505092915050565b6000612f998284612f5c565b915081905092915050565b7f4e487b7100000000000000000000000000000000000000000000000000000000600052603260045260246000fd5b6000612fdf8285612f5c565b9150612feb8284612f5c565b91508190509392505050565b60008190508160005260206000209050919050565b60006020601f8301049050919050565b600082821b905092915050565b6000600883026130597fffffffffffffffffffffffffffffffffffffffffffffffffffffffffffffffff8261301c565b613063868361301c565b95508019841693508086168417925050509392505050565b6000819050919050565b60006130a061309b613096846126e6565b61307b565b6126e6565b9050919050565b6000819050919050565b6130ba83613085565b6130ce6130c6826130a7565b848454613029565b825550505050565b600090565b6130e36130d6565b6130ee8184846130b1565b505050565b5b81811015613112576131076000826130db565b6001810190506130f4565b5050565b601f8211156131575761312881612ff7565b6131318461300c565b81016020851015613140578190505b61315461314c8561300c565b8301826130f3565b50505b505050565b600082821c905092915050565b600061317a6000198460080261315c565b1980831691505092915050565b60006131938383613169565b9150826002028217905092915050565b6131ac826127d5565b67ffffffffffffffff8111156131c5576131c461255f565b5b6131cf8254612ee9565b6131da828285613116565b600060209050601f83116001811461320d57600084156131fb578287015190505b6132058582613187565b86555061326d565b601f19841661321b86612ff7565b60005b828110156132435784890151825560018201915060208501945060208101905061321e565b86831015613260578489015161325c601f891682613169565b8355505b6001600288020188555050505b505050505050565b600081519050919050565b600082825260208201905092915050565b600061329c82613275565b6132a68185613280565b93506132b68185602086016127f1565b6132bf8161254e565b840191505092915050565b60006080820190506132df60008301876128cf565b6132ec60208301866128cf565b6132f960408301856126f0565b818103606083015261330b8184613291565b905095945050505050565b60008151905061332581612746565b92915050565b600060208284031215613341576133406124dc565b5b600061334f84828501613316565b91505092915050565b600060408201905061336d60008301856128cf565b61337a60208301846126f0565b9392505050565b7f4e487b7100000000000000000000000000000000000000000000000000000000600052601260045260246000fdfea26469706673582212201075f2be74fbb75b22ec366b8da0b8c98aa6333b4ec0d66297a1bfa2cfe5561364736f6c634300081c0033",
  "linkReferences": {},
  "deployedLinkReferences": {}
}