{
  "_format": "hh-sol-artifact-1",
  "contractName": "RoleManager",
  "sourceName": "contracts/RoleManager.sol",
  "abi": [
    {
      "inputs": [],
      "stateMutability": "nonpayable",
      "type": "constructor"
    },
    {
      "inputs": [],
      "name": "getRole",
      "outputs": [
        {
          "internalType": "enum RoleManager.RoleType",
          "name": "",
          "type": "uint8"
        }
      ],
      "stateMutability": "view",
      "type": "function"
    },
    {
      "inputs": [
        {
          "internalType": "address",
          "name": "userAddr",
          "type": "address"
        }
      ],
      "name": "isAdmin",
      "outputs": [
        {
          "internalType": "bool",
          "name": "",
          "type": "bool"
        }
      ],
      "stateMutability": "view",
      "type": "function"
    },
    {
      "inputs": [
        {
          "internalType": "address",
          "name": "userAddr",
          "type": "address"
        }
      ],
      "name": "isOrganization",
      "outputs": [
        {
          "internalType": "bool",
          "name": "",
          "type": "bool"
        }
      ],
      "stateMutability": "view",
      "type": "function"
    },
    {
      "inputs": [
        {
          "internalType": "address",
          "name": "userAddr",
          "type": "address"
        }
      ],
      "name": "isStudent",
      "outputs": [
        {
          "internalType": "bool",
          "name": "",
          "type": "bool"
        }
      ],
      "stateMutability": "view",
      "type": "function"
    },
    {
      "inputs": [
        {
          "internalType": "address",
          "name": "userAddr",
          "type": "address"
        }
      ],
      "name": "setAdminRole",
      "outputs": [],
      "stateMutability": "nonpayable",
      "type": "function"
    },
    {
      "inputs": [
        {
          "internalType": "address",
          "name": "userAddr",
          "type": "address"
        }
      ],
      "name": "setOrganizationRole",
      "outputs": [],
      "stateMutability": "nonpayable",
      "type": "function"
    },
    {
      "inputs": [
        {
          "internalType": "address",
          "name": "userAddr",
          "type": "address"
        }
      ],
      "name": "setStudentRole",
      "outputs": [],
      "stateMutability": "nonpayable",
      "type": "function"
    }
  ],
  "bytecode": "0x6080604052348015600f57600080fd5b5060008060003373ffffffffffffffffffffffffffffffffffffffff1673ffffffffffffffffffffffffffffffffffffffff16815260200190815260200160002060006101000a81548160ff02191690836002811115606f57606e6078565b5b021790555060a7565b7f4e487b7100000000000000000000000000000000000000000000000000000000600052602160045260246000fd5b6109be806100b66000396000f3fe608060405234801561001057600080fd5b506004361061007d5760003560e01c806382f7d3921161005b57806382f7d392146100ea578063b1ce8eab1461011a578063f10a45d41461014a578063fde08174146101665761007d565b806324d7806c146100825780632e1cd6c2146100b25780634adc7cfd146100ce575b600080fd5b61009c600480360381019061009791906107e1565b610184565b6040516100a99190610829565b60405180910390f35b6100cc60048036038101906100c791906107e1565b61020f565b005b6100e860048036038101906100e391906107e1565b610366565b005b61010460048036038101906100ff91906107e1565b6104bd565b6040516101119190610829565b60405180910390f35b610134600480360381019061012f91906107e1565b610548565b6040516101419190610829565b60405180910390f35b610164600480360381019061015f91906107e1565b6105d4565b005b61016e61072b565b60405161017b91906108bb565b60405180910390f35b600080600281111561019957610198610844565b5b6000808473ffffffffffffffffffffffffffffffffffffffff1673ffffffffffffffffffffffffffffffffffffffff16815260200190815260200160002060009054906101000a900460ff1660028111156101f7576101f6610844565b5b03610205576001905061020a565b600090505b919050565b600080600281111561022457610223610844565b5b6000803373ffffffffffffffffffffffffffffffffffffffff1673ffffffffffffffffffffffffffffffffffffffff16815260200190815260200160002060009054906101000a900460ff16600281111561028257610281610844565b5b146040518060400160405280600c81526020017f554e415554484f52495a45440000000000000000000000000000000000000000815250906102fa576040517f08c379a00000000000000000000000000000000000000000000000000000000081526004016102f19190610966565b60405180910390fd5b5060026000808473ffffffffffffffffffffffffffffffffffffffff1673ffffffffffffffffffffffffffffffffffffffff16815260200190815260200160002060006101000a81548160ff0219169083600281111561035d5761035c610844565b5b02179055505050565b600080600281111561037b5761037a610844565b5b6000803373ffffffffffffffffffffffffffffffffffffffff1673ffffffffffffffffffffffffffffffffffffffff16815260200190815260200160002060009054906101000a900460ff1660028111156103d9576103d8610844565b5b146040518060400160405280600c81526020017f554e415554484f52495a4544000000000000000000000000000000000000000081525090610451576040517f08c379a00000000000000000000000000000000000000000000000000000000081526004016104489190610966565b60405180910390fd5b5060008060008473ffffffffffffffffffffffffffffffffffffffff1673ffffffffffffffffffffffffffffffffffffffff16815260200190815260200160002060006101000a81548160ff021916908360028111156104b4576104b3610844565b5b02179055505050565b60006002808111156104d2576104d1610844565b5b6000808473ffffffffffffffffffffffffffffffffffffffff1673ffffffffffffffffffffffffffffffffffffffff16815260200190815260200160002060009054906101000a900460ff1660028111156105305761052f610844565b5b0361053e5760019050610543565b600090505b919050565b60006001600281111561055e5761055d610844565b5b6000808473ffffffffffffffffffffffffffffffffffffffff1673ffffffffffffffffffffffffffffffffffffffff16815260200190815260200160002060009054906101000a900460ff1660028111156105bc576105bb610844565b5b036105ca57600190506105cf565b600090505b919050565b60008060028111156105e9576105e8610844565b5b6000803373ffffffffffffffffffffffffffffffffffffffff1673ffffffffffffffffffffffffffffffffffffffff16815260200190815260200160002060009054906101000a900460ff16600281111561064757610646610844565b5b146040518060400160405280600c81526020017f554e415554484f52495a45440000000000000000000000000000000000000000815250906106bf576040517f08c379a00000000000000000000000000000000000000000000000000000000081526004016106b69190610966565b60405180910390fd5b5060016000808473ffffffffffffffffffffffffffffffffffffffff1673ffffffffffffffffffffffffffffffffffffffff16815260200190815260200160002060006101000a81548160ff0219169083600281111561072257610721610844565b5b02179055505050565b60008060003373ffffffffffffffffffffffffffffffffffffffff1673ffffffffffffffffffffffffffffffffffffffff16815260200190815260200160002060009054906101000a900460ff16905090565b600080fd5b600073ffffffffffffffffffffffffffffffffffffffff82169050919050565b60006107ae82610783565b9050919050565b6107be816107a3565b81146107c957600080fd5b50565b6000813590506107db816107b5565b92915050565b6000602082840312156107f7576107f661077e565b5b6000610805848285016107cc565b91505092915050565b60008115159050919050565b6108238161080e565b82525050565b600060208201905061083e600083018461081a565b92915050565b7f4e487b7100000000000000000000000000000000000000000000000000000000600052602160045260246000fd5b6003811061088457610883610844565b5b50565b600081905061089582610873565b919050565b60006108a582610887565b9050919050565b6108b58161089a565b82525050565b60006020820190506108d060008301846108ac565b92915050565b600081519050919050565b600082825260208201905092915050565b60005b838110156109105780820151818401526020810190506108f5565b60008484015250505050565b6000601f19601f8301169050919050565b6000610938826108d6565b61094281856108e1565b93506109528185602086016108f2565b61095b8161091c565b840191505092915050565b60006020820190508181036000830152610980818461092d565b90509291505056fea26469706673582212205709bbbaf777b1a85cddcc6862a5134f850f6b72468d50acc6deaed9f5ab4a6364736f6c634300081c0033",
  "linkReferences": {},
  "deployedLinkReferences": {}
}