{
  "_format": "hh-sol-artifact-1",
  "contractName": "RoleManagerContract",
  "sourceName": "contracts/RoleManager.sol",
  "abi": [
    {
      "inputs": [],
      "stateMutability": "nonpayable",
      "type": "constructor"
    },
    {
      "inputs": [],
      "name": "getRole",
      "outputs": [
        {
          "internalType": "enum RoleManagerContract.RoleType",
          "name": "",
          "type": "uint8"
        }
      ],
      "stateMutability": "view",
      "type": "function"
    },
    {
      "inputs": [],
      "name": "isCurrentUserAdmin",
      "outputs": [
        {
          "internalType": "bool",
          "name": "",
          "type": "bool"
        }
      ],
      "stateMutability": "view",
      "type": "function"
    },
    {
      "inputs": [
        {
          "internalType": "address",
          "name": "userAddr",
          "type": "address"
        }
      ],
      "name": "setAdminRole",
      "outputs": [],
      "stateMutability": "nonpayable",
      "type": "function"
    },
    {
      "inputs": [
        {
          "internalType": "address",
          "name": "userAddr",
          "type": "address"
        }
      ],
      "name": "setOrganizationRole",
      "outputs": [],
      "stateMutability": "nonpayable",
      "type": "function"
    },
    {
      "inputs": [
        {
          "internalType": "address",
          "name": "userAddr",
          "type": "address"
        }
      ],
      "name": "setStudentRole",
      "outputs": [],
      "stateMutability": "nonpayable",
      "type": "function"
    }
  ],
  "bytecode": "0x6080604052348015600f57600080fd5b5060008060003373ffffffffffffffffffffffffffffffffffffffff1673ffffffffffffffffffffffffffffffffffffffff16815260200190815260200160002060006101000a81548160ff02191690836002811115606f57606e6078565b5b021790555060a7565b7f4e487b7100000000000000000000000000000000000000000000000000000000600052602160045260246000fd5b6106fd806100b66000396000f3fe608060405234801561001057600080fd5b50600436106100575760003560e01c80632e1cd6c21461005c5780634adc7cfd146100785780639805524a14610094578063f10a45d4146100b2578063fde08174146100ce575b600080fd5b61007660048036038101906100719190610520565b6100ec565b005b610092600480360381019061008d9190610520565b6101ff565b005b61009c610312565b6040516100a99190610568565b60405180910390f35b6100cc60048036038101906100c79190610520565b610357565b005b6100d661046a565b6040516100e391906105fa565b60405180910390f35b600080600281111561010157610100610583565b5b61010961046a565b600281111561011b5761011a610583565b5b146040518060400160405280600c81526020017f554e415554484f52495a4544000000000000000000000000000000000000000081525090610193576040517f08c379a000000000000000000000000000000000000000000000000000000000815260040161018a91906106a5565b60405180910390fd5b5060026000808473ffffffffffffffffffffffffffffffffffffffff1673ffffffffffffffffffffffffffffffffffffffff16815260200190815260200160002060006101000a81548160ff021916908360028111156101f6576101f5610583565b5b02179055505050565b600080600281111561021457610213610583565b5b61021c61046a565b600281111561022e5761022d610583565b5b146040518060400160405280600c81526020017f554e415554484f52495a45440000000000000000000000000000000000000000815250906102a6576040517f08c379a000000000000000000000000000000000000000000000000000000000815260040161029d91906106a5565b60405180910390fd5b5060008060008473ffffffffffffffffffffffffffffffffffffffff1673ffffffffffffffffffffffffffffffffffffffff16815260200190815260200160002060006101000a81548160ff0219169083600281111561030957610308610583565b5b02179055505050565b600080600281111561032757610326610583565b5b61032f61046a565b600281111561034157610340610583565b5b0361034f5760019050610354565b600090505b90565b600080600281111561036c5761036b610583565b5b61037461046a565b600281111561038657610385610583565b5b146040518060400160405280600c81526020017f554e415554484f52495a45440000000000000000000000000000000000000000815250906103fe576040517f08c379a00000000000000000000000000000000000000000000000000000000081526004016103f591906106a5565b60405180910390fd5b5060016000808473ffffffffffffffffffffffffffffffffffffffff1673ffffffffffffffffffffffffffffffffffffffff16815260200190815260200160002060006101000a81548160ff0219169083600281111561046157610460610583565b5b02179055505050565b60008060003373ffffffffffffffffffffffffffffffffffffffff1673ffffffffffffffffffffffffffffffffffffffff16815260200190815260200160002060009054906101000a900460ff16905090565b600080fd5b600073ffffffffffffffffffffffffffffffffffffffff82169050919050565b60006104ed826104c2565b9050919050565b6104fd816104e2565b811461050857600080fd5b50565b60008135905061051a816104f4565b92915050565b600060208284031215610536576105356104bd565b5b60006105448482850161050b565b91505092915050565b60008115159050919050565b6105628161054d565b82525050565b600060208201905061057d6000830184610559565b92915050565b7f4e487b7100000000000000000000000000000000000000000000000000000000600052602160045260246000fd5b600381106105c3576105c2610583565b5b50565b60008190506105d4826105b2565b919050565b60006105e4826105c6565b9050919050565b6105f4816105d9565b82525050565b600060208201905061060f60008301846105eb565b92915050565b600081519050919050565b600082825260208201905092915050565b60005b8381101561064f578082015181840152602081019050610634565b60008484015250505050565b6000601f19601f8301169050919050565b600061067782610615565b6106818185610620565b9350610691818560208601610631565b61069a8161065b565b840191505092915050565b600060208201905081810360008301526106bf818461066c565b90509291505056fea264697066735822122047bee5e628d923560c2ce4de93593df65f10e9a98a743d3960e4fa61ce080a2664736f6c634300081c0033",
  "linkReferences": {},
  "deployedLinkReferences": {}
}