{
  "_format": "hh-sol-artifact-1",
  "contractName": "RoleManagerContract",
  "sourceName": "contracts/RoleManager.sol",
  "abi": [
    {
      "inputs": [],
      "stateMutability": "nonpayable",
      "type": "constructor"
    },
    {
      "inputs": [
        {
          "internalType": "address",
          "name": "userAddr",
          "type": "address"
        }
      ],
      "name": "getRole",
      "outputs": [
        {
          "internalType": "enum RoleManagerContract.RoleType",
          "name": "",
          "type": "uint8"
        }
      ],
      "stateMutability": "view",
      "type": "function"
    },
    {
      "inputs": [
        {
          "internalType": "address",
          "name": "userAddr",
          "type": "address"
        }
      ],
      "name": "setAdminRole",
      "outputs": [],
      "stateMutability": "nonpayable",
      "type": "function"
    },
    {
      "inputs": [
        {
          "internalType": "address",
          "name": "userAddr",
          "type": "address"
        }
      ],
      "name": "setOrganizationRole",
      "outputs": [],
      "stateMutability": "nonpayable",
      "type": "function"
    },
    {
      "inputs": [
        {
          "internalType": "address",
          "name": "userAddr",
          "type": "address"
        }
      ],
      "name": "setStudentRole",
      "outputs": [],
      "stateMutability": "nonpayable",
      "type": "function"
    }
  ],
  "bytecode": "0x6080604052348015600f57600080fd5b5060008060003373ffffffffffffffffffffffffffffffffffffffff1673ffffffffffffffffffffffffffffffffffffffff16815260200190815260200160002060006101000a81548160ff02191690836002811115606f57606e6078565b5b021790555060a7565b7f4e487b7100000000000000000000000000000000000000000000000000000000600052602160045260246000fd5b610676806100b66000396000f3fe608060405234801561001057600080fd5b506004361061004c5760003560e01c80632e1cd6c214610051578063442767331461006d5780634adc7cfd1461009d578063f10a45d4146100b9575b600080fd5b61006b600480360381019061006691906104cf565b6100d5565b005b610087600480360381019061008291906104cf565b6101eb565b6040516100949190610573565b60405180910390f35b6100b760048036038101906100b291906104cf565b610240565b005b6100d360048036038101906100ce91906104cf565b610356565b005b6000338160028111156100eb576100ea6104fc565b5b6100f4826101eb565b6002811115610106576101056104fc565b5b146040518060400160405280600c81526020017f554e415554484f52495a454400000000000000000000000000000000000000008152509061017e576040517f08c379a0000000000000000000000000000000000000000000000000000000008152600401610175919061061e565b60405180910390fd5b5060026000808573ffffffffffffffffffffffffffffffffffffffff1673ffffffffffffffffffffffffffffffffffffffff16815260200190815260200160002060006101000a81548160ff021916908360028111156101e1576101e06104fc565b5b0217905550505050565b60008060008373ffffffffffffffffffffffffffffffffffffffff1673ffffffffffffffffffffffffffffffffffffffff16815260200190815260200160002060009054906101000a900460ff169050919050565b600033816002811115610256576102556104fc565b5b61025f826101eb565b6002811115610271576102706104fc565b5b146040518060400160405280600c81526020017f554e415554484f52495a45440000000000000000000000000000000000000000815250906102e9576040517f08c379a00000000000000000000000000000000000000000000000000000000081526004016102e0919061061e565b60405180910390fd5b5060008060008573ffffffffffffffffffffffffffffffffffffffff1673ffffffffffffffffffffffffffffffffffffffff16815260200190815260200160002060006101000a81548160ff0219169083600281111561034c5761034b6104fc565b5b0217905550505050565b60003381600281111561036c5761036b6104fc565b5b610375826101eb565b6002811115610387576103866104fc565b5b146040518060400160405280600c81526020017f554e415554484f52495a45440000000000000000000000000000000000000000815250906103ff576040517f08c379a00000000000000000000000000000000000000000000000000000000081526004016103f6919061061e565b60405180910390fd5b5060016000808573ffffffffffffffffffffffffffffffffffffffff1673ffffffffffffffffffffffffffffffffffffffff16815260200190815260200160002060006101000a81548160ff02191690836002811115610462576104616104fc565b5b0217905550505050565b600080fd5b600073ffffffffffffffffffffffffffffffffffffffff82169050919050565b600061049c82610471565b9050919050565b6104ac81610491565b81146104b757600080fd5b50565b6000813590506104c9816104a3565b92915050565b6000602082840312156104e5576104e461046c565b5b60006104f3848285016104ba565b91505092915050565b7f4e487b7100000000000000000000000000000000000000000000000000000000600052602160045260246000fd5b6003811061053c5761053b6104fc565b5b50565b600081905061054d8261052b565b919050565b600061055d8261053f565b9050919050565b61056d81610552565b82525050565b60006020820190506105886000830184610564565b92915050565b600081519050919050565b600082825260208201905092915050565b60005b838110156105c85780820151818401526020810190506105ad565b60008484015250505050565b6000601f19601f8301169050919050565b60006105f08261058e565b6105fa8185610599565b935061060a8185602086016105aa565b610613816105d4565b840191505092915050565b6000602082019050818103600083015261063881846105e5565b90509291505056fea264697066735822122099f84efaf45beb87b5eed27bc2848f9779e5b7ec3b12f302ec9db04862e968a664736f6c634300081c0033",
  "linkReferences": {},
  "deployedLinkReferences": {}
}