{
  "_format": "hh-sol-artifact-1",
  "contractName": "UserManagerContract",
  "sourceName": "contracts/UserManager.sol",
  "abi": [
    {
      "inputs": [
        {
          "internalType": "address",
          "name": "_roleManagerAddress",
          "type": "address"
        }
      ],
      "stateMutability": "nonpayable",
      "type": "constructor"
    },
    {
      "inputs": [
        {
          "internalType": "address",
          "name": "userAddr",
          "type": "address"
        },
        {
          "internalType": "uint256",
          "name": "tokenId",
          "type": "uint256"
        }
      ],
      "name": "addNftToUser",
      "outputs": [],
      "stateMutability": "nonpayable",
      "type": "function"
    },
    {
      "inputs": [
        {
          "internalType": "string",
          "name": "_fullName",
          "type": "string"
        },
        {
          "internalType": "uint256",
          "name": "_dateOfBirth",
          "type": "uint256"
        },
        {
          "internalType": "enum UserManagerContract.Gender",
          "name": "_gender",
          "type": "uint8"
        }
      ],
      "name": "createUser",
      "outputs": [],
      "stateMutability": "nonpayable",
      "type": "function"
    },
    {
      "inputs": [],
      "name": "getCurrentUserData",
      "outputs": [
        {
          "internalType": "string",
          "name": "",
          "type": "string"
        },
        {
          "internalType": "uint256",
          "name": "",
          "type": "uint256"
        },
        {
          "internalType": "enum UserManagerContract.Gender",
          "name": "",
          "type": "uint8"
        }
      ],
      "stateMutability": "view",
      "type": "function"
    },
    {
      "inputs": [
        {
          "internalType": "address",
          "name": "userAddr",
          "type": "address"
        }
      ],
      "name": "getOtherUserData",
      "outputs": [
        {
          "internalType": "string",
          "name": "",
          "type": "string"
        },
        {
          "internalType": "uint256",
          "name": "",
          "type": "uint256"
        },
        {
          "internalType": "enum UserManagerContract.Gender",
          "name": "",
          "type": "uint8"
        }
      ],
      "stateMutability": "view",
      "type": "function"
    },
    {
      "inputs": [
        {
          "internalType": "address",
          "name": "userAddr",
          "type": "address"
        }
      ],
      "name": "listAllNftsOfUser",
      "outputs": [
        {
          "internalType": "uint256[]",
          "name": "",
          "type": "uint256[]"
        }
      ],
      "stateMutability": "view",
      "type": "function"
    }
  ],
  "bytecode": "0x608060405234801561001057600080fd5b50604051611adb380380611adb833981810160405281019061003291906101d2565b806000806101000a81548173ffffffffffffffffffffffffffffffffffffffff021916908373ffffffffffffffffffffffffffffffffffffffff16021790555060405180606001604052806040518060400160405280600581526020017f41646d696e00000000000000000000000000000000000000000000000000000081525081526020016298968081526020016002808111156100d4576100d36101ff565b5b815250600160003373ffffffffffffffffffffffffffffffffffffffff1673ffffffffffffffffffffffffffffffffffffffff168152602001908152602001600020600082015181600001908161012b919061047e565b506020820151816001015560408201518160020160006101000a81548160ff02191690836002811115610161576101606101ff565b5b021790555090505050610550565b600080fd5b600073ffffffffffffffffffffffffffffffffffffffff82169050919050565b600061019f82610174565b9050919050565b6101af81610194565b81146101ba57600080fd5b50565b6000815190506101cc816101a6565b92915050565b6000602082840312156101e8576101e761016f565b5b60006101f6848285016101bd565b91505092915050565b7f4e487b7100000000000000000000000000000000000000000000000000000000600052602160045260246000fd5b600081519050919050565b7f4e487b7100000000000000000000000000000000000000000000000000000000600052604160045260246000fd5b7f4e487b7100000000000000000000000000000000000000000000000000000000600052602260045260246000fd5b600060028204905060018216806102af57607f821691505b6020821081036102c2576102c1610268565b5b50919050565b60008190508160005260206000209050919050565b60006020601f8301049050919050565b600082821b905092915050565b60006008830261032a7fffffffffffffffffffffffffffffffffffffffffffffffffffffffffffffffff826102ed565b61033486836102ed565b95508019841693508086168417925050509392505050565b6000819050919050565b6000819050919050565b600061037b6103766103718461034c565b610356565b61034c565b9050919050565b6000819050919050565b61039583610360565b6103a96103a182610382565b8484546102fa565b825550505050565b600090565b6103be6103b1565b6103c981848461038c565b505050565b5b818110156103ed576103e26000826103b6565b6001810190506103cf565b5050565b601f82111561043257610403816102c8565b61040c846102dd565b8101602085101561041b578190505b61042f610427856102dd565b8301826103ce565b50505b505050565b600082821c905092915050565b600061045560001984600802610437565b1980831691505092915050565b600061046e8383610444565b9150826002028217905092915050565b6104878261022e565b67ffffffffffffffff8111156104a05761049f610239565b5b6104aa8254610297565b6104b58282856103f1565b600060209050601f8311600181146104e857600084156104d6578287015190505b6104e08582610462565b865550610548565b601f1984166104f6866102c8565b60005b8281101561051e578489015182556001820191506020850194506020810190506104f9565b8683101561053b5784890151610537601f891682610444565b8355505b6001600288020188555050505b505050505050565b61157c8061055f6000396000f3fe608060405234801561001057600080fd5b50600436106100565760003560e01c8062704c6c1461005b578063091c455314610077578063541709da146100a957806380b6e64a146100c9578063d9781122146100e5575b600080fd5b61007560048036038101906100709190610c55565b610115565b005b610091600480360381019061008c9190610c95565b6102fb565b6040516100a093929190610dd8565b60405180910390f35b6100b1610502565b6040516100c093929190610dd8565b60405180910390f35b6100e360048036038101906100de9190610f70565b610707565b005b6100ff60048036038101906100fa9190610c95565b610916565b60405161010c919061109d565b60405180910390f35b600080600281111561012a57610129610d61565b5b60008054906101000a900473ffffffffffffffffffffffffffffffffffffffff1673ffffffffffffffffffffffffffffffffffffffff1663fde081746040518163ffffffff1660e01b8152600401602060405180830381865afa158015610195573d6000803e3d6000fd5b505050506040513d601f19601f820116820180604052508101906101b991906110e4565b60028111156101cb576101ca610d61565b5b146040518060400160405280600c81526020017f554e415554484f52495a4544000000000000000000000000000000000000000081525090610243576040517f08c379a000000000000000000000000000000000000000000000000000000000815260040161023a9190611111565b60405180910390fd5b5060006040518060400160405280848152602001600015158152509050600260008573ffffffffffffffffffffffffffffffffffffffff1673ffffffffffffffffffffffffffffffffffffffff1681526020019081526020016000208190806001815401808255809150506001900390600052602060002090600202016000909190919091506000820151816000015560208201518160010160006101000a81548160ff021916908315150217905550505050505050565b6060600080836000600160008373ffffffffffffffffffffffffffffffffffffffff1673ffffffffffffffffffffffffffffffffffffffff16815260200190815260200160002060010154116040518060400160405280601181526020017f555345525f49535f4e4f545f464f554e44000000000000000000000000000000815250906103be576040517f08c379a00000000000000000000000000000000000000000000000000000000081526004016103b59190611111565b60405180910390fd5b506000600160008773ffffffffffffffffffffffffffffffffffffffff1673ffffffffffffffffffffffffffffffffffffffff16815260200190815260200160002060405180606001604052908160008201805461041b90611162565b80601f016020809104026020016040519081016040528092919081815260200182805461044790611162565b80156104945780601f1061046957610100808354040283529160200191610494565b820191906000526020600020905b81548152906001019060200180831161047757829003601f168201915b50505050508152602001600182015481526020016002820160009054906101000a900460ff1660028111156104cc576104cb610d61565b5b60028111156104de576104dd610d61565b5b81525050905080600001518160200151826040015194509450945050509193909250565b6060600080336000600160008373ffffffffffffffffffffffffffffffffffffffff1673ffffffffffffffffffffffffffffffffffffffff16815260200190815260200160002060010154116040518060400160405280601181526020017f555345525f49535f4e4f545f464f554e44000000000000000000000000000000815250906105c5576040517f08c379a00000000000000000000000000000000000000000000000000000000081526004016105bc9190611111565b60405180910390fd5b506000600160003373ffffffffffffffffffffffffffffffffffffffff1673ffffffffffffffffffffffffffffffffffffffff16815260200190815260200160002060405180606001604052908160008201805461062290611162565b80601f016020809104026020016040519081016040528092919081815260200182805461064e90611162565b801561069b5780601f106106705761010080835404028352916020019161069b565b820191906000526020600020905b81548152906001019060200180831161067e57829003601f168201915b50505050508152602001600182015481526020016002820160009054906101000a900460ff1660028111156106d3576106d2610d61565b5b60028111156106e5576106e4610d61565b5b8152505090508060000151816020015182604001519450945094505050909192565b336000600160008373ffffffffffffffffffffffffffffffffffffffff1673ffffffffffffffffffffffffffffffffffffffff16815260200190815260200160002060010154146040518060400160405280600f81526020017f555345525f49535f435245415445440000000000000000000000000000000000815250906107c5576040517f08c379a00000000000000000000000000000000000000000000000000000000081526004016107bc9190611111565b60405180910390fd5b5060405180606001604052808581526020018481526020018360028111156107f0576107ef610d61565b5b815250600160003373ffffffffffffffffffffffffffffffffffffffff1673ffffffffffffffffffffffffffffffffffffffff1681526020019081526020016000206000820151816000019081610847919061133f565b506020820151816001015560408201518160020160006101000a81548160ff0219169083600281111561087d5761087c610d61565b5b021790555090505060008054906101000a900473ffffffffffffffffffffffffffffffffffffffff1673ffffffffffffffffffffffffffffffffffffffff16632e1cd6c2336040518263ffffffff1660e01b81526004016108de9190611420565b600060405180830381600087803b1580156108f857600080fd5b505af115801561090c573d6000803e3d6000fd5b5050505050505050565b60606000600260008473ffffffffffffffffffffffffffffffffffffffff1673ffffffffffffffffffffffffffffffffffffffff168152602001908152602001600020805480602002602001604051908101604052809291908181526020016000905b828210156109d05783829060005260206000209060020201604051806040016040529081600082015481526020016001820160009054906101000a900460ff16151515158152505081526020019060010190610979565b5050505090506000815167ffffffffffffffff8111156109f3576109f2610e20565b5b604051908082528060200260200182016040528015610a215781602001602082028036833780820191505090505b5090506000805b8351811015610ba1573373ffffffffffffffffffffffffffffffffffffffff168673ffffffffffffffffffffffffffffffffffffffff16148015610a885750838181518110610a7a57610a7961143b565b5b602002602001015160200151155b80610b1e575060008054906101000a900473ffffffffffffffffffffffffffffffffffffffff1673ffffffffffffffffffffffffffffffffffffffff16639805524a6040518163ffffffff1660e01b8152600401602060405180830381865afa158015610af9573d6000803e3d6000fd5b505050506040513d601f19601f82011682018060405250810190610b1d91906114a2565b5b80610b445750838181518110610b3757610b3661143b565b5b6020026020010151602001515b15610b9457838181518110610b5c57610b5b61143b565b5b602002602001015160000151838380610b74906114fe565b945081518110610b8757610b8661143b565b5b6020026020010181815250505b8080600101915050610a28565b50819350505050919050565b6000604051905090565b600080fd5b600080fd5b600073ffffffffffffffffffffffffffffffffffffffff82169050919050565b6000610bec82610bc1565b9050919050565b610bfc81610be1565b8114610c0757600080fd5b50565b600081359050610c1981610bf3565b92915050565b6000819050919050565b610c3281610c1f565b8114610c3d57600080fd5b50565b600081359050610c4f81610c29565b92915050565b60008060408385031215610c6c57610c6b610bb7565b5b6000610c7a85828601610c0a565b9250506020610c8b85828601610c40565b9150509250929050565b600060208284031215610cab57610caa610bb7565b5b6000610cb984828501610c0a565b91505092915050565b600081519050919050565b600082825260208201905092915050565b60005b83811015610cfc578082015181840152602081019050610ce1565b60008484015250505050565b6000601f19601f8301169050919050565b6000610d2482610cc2565b610d2e8185610ccd565b9350610d3e818560208601610cde565b610d4781610d08565b840191505092915050565b610d5b81610c1f565b82525050565b7f4e487b7100000000000000000000000000000000000000000000000000000000600052602160045260246000fd5b60038110610da157610da0610d61565b5b50565b6000819050610db282610d90565b919050565b6000610dc282610da4565b9050919050565b610dd281610db7565b82525050565b60006060820190508181036000830152610df28186610d19565b9050610e016020830185610d52565b610e0e6040830184610dc9565b949350505050565b600080fd5b600080fd5b7f4e487b7100000000000000000000000000000000000000000000000000000000600052604160045260246000fd5b610e5882610d08565b810181811067ffffffffffffffff82111715610e7757610e76610e20565b5b80604052505050565b6000610e8a610bad565b9050610e968282610e4f565b919050565b600067ffffffffffffffff821115610eb657610eb5610e20565b5b610ebf82610d08565b9050602081019050919050565b82818337600083830152505050565b6000610eee610ee984610e9b565b610e80565b905082815260208101848484011115610f0a57610f09610e1b565b5b610f15848285610ecc565b509392505050565b600082601f830112610f3257610f31610e16565b5b8135610f42848260208601610edb565b91505092915050565b60038110610f5857600080fd5b50565b600081359050610f6a81610f4b565b92915050565b600080600060608486031215610f8957610f88610bb7565b5b600084013567ffffffffffffffff811115610fa757610fa6610bbc565b5b610fb386828701610f1d565b9350506020610fc486828701610c40565b9250506040610fd586828701610f5b565b9150509250925092565b600081519050919050565b600082825260208201905092915050565b6000819050602082019050919050565b61101481610c1f565b82525050565b6000611026838361100b565b60208301905092915050565b6000602082019050919050565b600061104a82610fdf565b6110548185610fea565b935061105f83610ffb565b8060005b83811015611090578151611077888261101a565b975061108283611032565b925050600181019050611063565b5085935050505092915050565b600060208201905081810360008301526110b7818461103f565b905092915050565b600381106110cc57600080fd5b50565b6000815190506110de816110bf565b92915050565b6000602082840312156110fa576110f9610bb7565b5b6000611108848285016110cf565b91505092915050565b6000602082019050818103600083015261112b8184610d19565b905092915050565b7f4e487b7100000000000000000000000000000000000000000000000000000000600052602260045260246000fd5b6000600282049050600182168061117a57607f821691505b60208210810361118d5761118c611133565b5b50919050565b60008190508160005260206000209050919050565b60006020601f8301049050919050565b600082821b905092915050565b6000600883026111f57fffffffffffffffffffffffffffffffffffffffffffffffffffffffffffffffff826111b8565b6111ff86836111b8565b95508019841693508086168417925050509392505050565b6000819050919050565b600061123c61123761123284610c1f565b611217565b610c1f565b9050919050565b6000819050919050565b61125683611221565b61126a61126282611243565b8484546111c5565b825550505050565b600090565b61127f611272565b61128a81848461124d565b505050565b5b818110156112ae576112a3600082611277565b600181019050611290565b5050565b601f8211156112f3576112c481611193565b6112cd846111a8565b810160208510156112dc578190505b6112f06112e8856111a8565b83018261128f565b50505b505050565b600082821c905092915050565b6000611316600019846008026112f8565b1980831691505092915050565b600061132f8383611305565b9150826002028217905092915050565b61134882610cc2565b67ffffffffffffffff81111561136157611360610e20565b5b61136b8254611162565b6113768282856112b2565b600060209050601f8311600181146113a95760008415611397578287015190505b6113a18582611323565b865550611409565b601f1984166113b786611193565b60005b828110156113df578489015182556001820191506020850194506020810190506113ba565b868310156113fc57848901516113f8601f891682611305565b8355505b6001600288020188555050505b505050505050565b61141a81610be1565b82525050565b60006020820190506114356000830184611411565b92915050565b7f4e487b7100000000000000000000000000000000000000000000000000000000600052603260045260246000fd5b60008115159050919050565b61147f8161146a565b811461148a57600080fd5b50565b60008151905061149c81611476565b92915050565b6000602082840312156114b8576114b7610bb7565b5b60006114c68482850161148d565b91505092915050565b7f4e487b7100000000000000000000000000000000000000000000000000000000600052601160045260246000fd5b600061150982610c1f565b91507fffffffffffffffffffffffffffffffffffffffffffffffffffffffffffffffff820361153b5761153a6114cf565b5b60018201905091905056fea264697066735822122064485f66aa47f8b8d3d4a9d2e20cc02ab82bbc1158e9a0f17c35046eb327985164736f6c634300081c0033",
  "linkReferences": {},
  "deployedLinkReferences": {}
}