{
  "_format": "hh-sol-artifact-1",
  "contractName": "UserManagerContract",
  "sourceName": "contracts/UserManager.sol",
  "abi": [
    {
      "inputs": [
        {
          "internalType": "address",
          "name": "_roleManagerAddress",
          "type": "address"
        }
      ],
      "stateMutability": "nonpayable",
      "type": "constructor"
    },
    {
      "inputs": [
        {
          "internalType": "string",
          "name": "_fullName",
          "type": "string"
        },
        {
          "internalType": "uint256",
          "name": "_dateOfBirth",
          "type": "uint256"
        },
        {
          "internalType": "enum UserManagerContract.Gender",
          "name": "_gender",
          "type": "uint8"
        }
      ],
      "name": "createUser",
      "outputs": [],
      "stateMutability": "nonpayable",
      "type": "function"
    },
    {
      "inputs": [],
      "name": "getCurrentUserData",
      "outputs": [
        {
          "internalType": "string",
          "name": "",
          "type": "string"
        },
        {
          "internalType": "uint256",
          "name": "",
          "type": "uint256"
        },
        {
          "internalType": "enum UserManagerContract.Gender",
          "name": "",
          "type": "uint8"
        }
      ],
      "stateMutability": "view",
      "type": "function"
    },
    {
      "inputs": [
        {
          "internalType": "address",
          "name": "userAddr",
          "type": "address"
        }
      ],
      "name": "getOtherUserData",
      "outputs": [
        {
          "internalType": "string",
          "name": "",
          "type": "string"
        },
        {
          "internalType": "uint256",
          "name": "",
          "type": "uint256"
        },
        {
          "internalType": "enum UserManagerContract.Gender",
          "name": "",
          "type": "uint8"
        }
      ],
      "stateMutability": "view",
      "type": "function"
    }
  ],
  "bytecode": "0x608060405234801561001057600080fd5b50604051611380380380611380833981810160405281019061003291906101d2565b806000806101000a81548173ffffffffffffffffffffffffffffffffffffffff021916908373ffffffffffffffffffffffffffffffffffffffff16021790555060405180606001604052806040518060400160405280600581526020017f41646d696e00000000000000000000000000000000000000000000000000000081525081526020016298968081526020016002808111156100d4576100d36101ff565b5b815250600160003373ffffffffffffffffffffffffffffffffffffffff1673ffffffffffffffffffffffffffffffffffffffff168152602001908152602001600020600082015181600001908161012b919061047e565b506020820151816001015560408201518160020160006101000a81548160ff02191690836002811115610161576101606101ff565b5b021790555090505050610550565b600080fd5b600073ffffffffffffffffffffffffffffffffffffffff82169050919050565b600061019f82610174565b9050919050565b6101af81610194565b81146101ba57600080fd5b50565b6000815190506101cc816101a6565b92915050565b6000602082840312156101e8576101e761016f565b5b60006101f6848285016101bd565b91505092915050565b7f4e487b7100000000000000000000000000000000000000000000000000000000600052602160045260246000fd5b600081519050919050565b7f4e487b7100000000000000000000000000000000000000000000000000000000600052604160045260246000fd5b7f4e487b7100000000000000000000000000000000000000000000000000000000600052602260045260246000fd5b600060028204905060018216806102af57607f821691505b6020821081036102c2576102c1610268565b5b50919050565b60008190508160005260206000209050919050565b60006020601f8301049050919050565b600082821b905092915050565b60006008830261032a7fffffffffffffffffffffffffffffffffffffffffffffffffffffffffffffffff826102ed565b61033486836102ed565b95508019841693508086168417925050509392505050565b6000819050919050565b6000819050919050565b600061037b6103766103718461034c565b610356565b61034c565b9050919050565b6000819050919050565b61039583610360565b6103a96103a182610382565b8484546102fa565b825550505050565b600090565b6103be6103b1565b6103c981848461038c565b505050565b5b818110156103ed576103e26000826103b6565b6001810190506103cf565b5050565b601f82111561043257610403816102c8565b61040c846102dd565b8101602085101561041b578190505b61042f610427856102dd565b8301826103ce565b50505b505050565b600082821c905092915050565b600061045560001984600802610437565b1980831691505092915050565b600061046e8383610444565b9150826002028217905092915050565b6104878261022e565b67ffffffffffffffff8111156104a05761049f610239565b5b6104aa8254610297565b6104b58282856103f1565b600060209050601f8311600181146104e857600084156104d6578287015190505b6104e08582610462565b865550610548565b601f1984166104f6866102c8565b60005b8281101561051e578489015182556001820191506020850194506020810190506104f9565b8683101561053b5784890151610537601f891682610444565b8355505b6001600288020188555050505b505050505050565b610e218061055f6000396000f3fe608060405234801561001057600080fd5b50600436106100415760003560e01c8063091c455314610046578063541709da1461007857806380b6e64a14610098575b600080fd5b610060600480360381019061005b9190610741565b6100b4565b60405161006f9392919061088e565b60405180910390f35b6100806102bb565b60405161008f9392919061088e565b60405180910390f35b6100b260048036038101906100ad9190610a52565b6104c0565b005b6060600080836000600160008373ffffffffffffffffffffffffffffffffffffffff1673ffffffffffffffffffffffffffffffffffffffff16815260200190815260200160002060010154116040518060400160405280601181526020017f555345525f49535f4e4f545f464f554e4400000000000000000000000000000081525090610177576040517f08c379a000000000000000000000000000000000000000000000000000000000815260040161016e9190610ac1565b60405180910390fd5b506000600160008773ffffffffffffffffffffffffffffffffffffffff1673ffffffffffffffffffffffffffffffffffffffff1681526020019081526020016000206040518060600160405290816000820180546101d490610b12565b80601f016020809104026020016040519081016040528092919081815260200182805461020090610b12565b801561024d5780601f106102225761010080835404028352916020019161024d565b820191906000526020600020905b81548152906001019060200180831161023057829003601f168201915b50505050508152602001600182015481526020016002820160009054906101000a900460ff16600281111561028557610284610817565b5b600281111561029757610296610817565b5b81525050905080600001518160200151826040015194509450945050509193909250565b6060600080336000600160008373ffffffffffffffffffffffffffffffffffffffff1673ffffffffffffffffffffffffffffffffffffffff16815260200190815260200160002060010154116040518060400160405280601181526020017f555345525f49535f4e4f545f464f554e440000000000000000000000000000008152509061037e576040517f08c379a00000000000000000000000000000000000000000000000000000000081526004016103759190610ac1565b60405180910390fd5b506000600160003373ffffffffffffffffffffffffffffffffffffffff1673ffffffffffffffffffffffffffffffffffffffff1681526020019081526020016000206040518060600160405290816000820180546103db90610b12565b80601f016020809104026020016040519081016040528092919081815260200182805461040790610b12565b80156104545780601f1061042957610100808354040283529160200191610454565b820191906000526020600020905b81548152906001019060200180831161043757829003601f168201915b50505050508152602001600182015481526020016002820160009054906101000a900460ff16600281111561048c5761048b610817565b5b600281111561049e5761049d610817565b5b8152505090508060000151816020015182604001519450945094505050909192565b336000600160008373ffffffffffffffffffffffffffffffffffffffff1673ffffffffffffffffffffffffffffffffffffffff16815260200190815260200160002060010154146040518060400160405280600f81526020017f555345525f49535f4352454154454400000000000000000000000000000000008152509061057e576040517f08c379a00000000000000000000000000000000000000000000000000000000081526004016105759190610ac1565b60405180910390fd5b5060405180606001604052808581526020018481526020018360028111156105a9576105a8610817565b5b815250600160003373ffffffffffffffffffffffffffffffffffffffff1673ffffffffffffffffffffffffffffffffffffffff16815260200190815260200160002060008201518160000190816106009190610cef565b506020820151816001015560408201518160020160006101000a81548160ff0219169083600281111561063657610635610817565b5b021790555090505060008054906101000a900473ffffffffffffffffffffffffffffffffffffffff1673ffffffffffffffffffffffffffffffffffffffff16632e1cd6c2336040518263ffffffff1660e01b81526004016106979190610dd0565b600060405180830381600087803b1580156106b157600080fd5b505af11580156106c5573d6000803e3d6000fd5b5050505050505050565b6000604051905090565b600080fd5b600080fd5b600073ffffffffffffffffffffffffffffffffffffffff82169050919050565b600061070e826106e3565b9050919050565b61071e81610703565b811461072957600080fd5b50565b60008135905061073b81610715565b92915050565b600060208284031215610757576107566106d9565b5b60006107658482850161072c565b91505092915050565b600081519050919050565b600082825260208201905092915050565b60005b838110156107a857808201518184015260208101905061078d565b60008484015250505050565b6000601f19601f8301169050919050565b60006107d08261076e565b6107da8185610779565b93506107ea81856020860161078a565b6107f3816107b4565b840191505092915050565b6000819050919050565b610811816107fe565b82525050565b7f4e487b7100000000000000000000000000000000000000000000000000000000600052602160045260246000fd5b6003811061085757610856610817565b5b50565b600081905061086882610846565b919050565b60006108788261085a565b9050919050565b6108888161086d565b82525050565b600060608201905081810360008301526108a881866107c5565b90506108b76020830185610808565b6108c4604083018461087f565b949350505050565b600080fd5b600080fd5b7f4e487b7100000000000000000000000000000000000000000000000000000000600052604160045260246000fd5b61090e826107b4565b810181811067ffffffffffffffff8211171561092d5761092c6108d6565b5b80604052505050565b60006109406106cf565b905061094c8282610905565b919050565b600067ffffffffffffffff82111561096c5761096b6108d6565b5b610975826107b4565b9050602081019050919050565b82818337600083830152505050565b60006109a461099f84610951565b610936565b9050828152602081018484840111156109c0576109bf6108d1565b5b6109cb848285610982565b509392505050565b600082601f8301126109e8576109e76108cc565b5b81356109f8848260208601610991565b91505092915050565b610a0a816107fe565b8114610a1557600080fd5b50565b600081359050610a2781610a01565b92915050565b60038110610a3a57600080fd5b50565b600081359050610a4c81610a2d565b92915050565b600080600060608486031215610a6b57610a6a6106d9565b5b600084013567ffffffffffffffff811115610a8957610a886106de565b5b610a95868287016109d3565b9350506020610aa686828701610a18565b9250506040610ab786828701610a3d565b9150509250925092565b60006020820190508181036000830152610adb81846107c5565b905092915050565b7f4e487b7100000000000000000000000000000000000000000000000000000000600052602260045260246000fd5b60006002820490506001821680610b2a57607f821691505b602082108103610b3d57610b3c610ae3565b5b50919050565b60008190508160005260206000209050919050565b60006020601f8301049050919050565b600082821b905092915050565b600060088302610ba57fffffffffffffffffffffffffffffffffffffffffffffffffffffffffffffffff82610b68565b610baf8683610b68565b95508019841693508086168417925050509392505050565b6000819050919050565b6000610bec610be7610be2846107fe565b610bc7565b6107fe565b9050919050565b6000819050919050565b610c0683610bd1565b610c1a610c1282610bf3565b848454610b75565b825550505050565b600090565b610c2f610c22565b610c3a818484610bfd565b505050565b5b81811015610c5e57610c53600082610c27565b600181019050610c40565b5050565b601f821115610ca357610c7481610b43565b610c7d84610b58565b81016020851015610c8c578190505b610ca0610c9885610b58565b830182610c3f565b50505b505050565b600082821c905092915050565b6000610cc660001984600802610ca8565b1980831691505092915050565b6000610cdf8383610cb5565b9150826002028217905092915050565b610cf88261076e565b67ffffffffffffffff811115610d1157610d106108d6565b5b610d1b8254610b12565b610d26828285610c62565b600060209050601f831160018114610d595760008415610d47578287015190505b610d518582610cd3565b865550610db9565b601f198416610d6786610b43565b60005b82811015610d8f57848901518255600182019150602085019450602081019050610d6a565b86831015610dac5784890151610da8601f891682610cb5565b8355505b6001600288020188555050505b505050505050565b610dca81610703565b82525050565b6000602082019050610de56000830184610dc1565b9291505056fea264697066735822122090e9f44dcbc24220cdfb175facd59524043f538fa300570d09f49cd72a47ecfe64736f6c634300081c0033",
  "linkReferences": {},
  "deployedLinkReferences": {}
}