{
  "_format": "hh-sol-artifact-1",
  "contractName": "UserContract",
  "sourceName": "contracts/User.sol",
  "abi": [
    {
      "inputs": [
        {
          "internalType": "address",
          "name": "_roleManagerAddress",
          "type": "address"
        }
      ],
      "stateMutability": "nonpayable",
      "type": "constructor"
    },
    {
      "inputs": [
        {
          "internalType": "string",
          "name": "_fullName",
          "type": "string"
        },
        {
          "internalType": "uint256",
          "name": "_dateOfBirth",
          "type": "uint256"
        },
        {
          "internalType": "enum UserContract.Gender",
          "name": "_gender",
          "type": "uint8"
        }
      ],
      "name": "createUser",
      "outputs": [],
      "stateMutability": "nonpayable",
      "type": "function"
    },
    {
      "inputs": [],
      "name": "getMyUserData",
      "outputs": [
        {
          "internalType": "string",
          "name": "fullName",
          "type": "string"
        },
        {
          "internalType": "uint256",
          "name": "dateOfBirth",
          "type": "uint256"
        },
        {
          "internalType": "enum UserContract.Gender",
          "name": "gender",
          "type": "uint8"
        }
      ],
      "stateMutability": "view",
      "type": "function"
    },
    {
      "inputs": [
        {
          "internalType": "address",
          "name": "userAddr",
          "type": "address"
        }
      ],
      "name": "getOtherUserData",
      "outputs": [
        {
          "components": [
            {
              "internalType": "string",
              "name": "fullName",
              "type": "string"
            },
            {
              "internalType": "uint256",
              "name": "dateOfBirth",
              "type": "uint256"
            },
            {
              "internalType": "enum UserContract.Gender",
              "name": "gender",
              "type": "uint8"
            }
          ],
          "internalType": "struct UserContract.User",
          "name": "",
          "type": "tuple"
        }
      ],
      "stateMutability": "view",
      "type": "function"
    }
  ],
  "bytecode": "0x608060405234801561001057600080fd5b5060405161147a38038061147a833981810160405281019061003291906101d2565b806000806101000a81548173ffffffffffffffffffffffffffffffffffffffff021916908373ffffffffffffffffffffffffffffffffffffffff16021790555060405180606001604052806040518060400160405280600581526020017f41646d696e00000000000000000000000000000000000000000000000000000081525081526020016298968081526020016002808111156100d4576100d36101ff565b5b815250600160003373ffffffffffffffffffffffffffffffffffffffff1673ffffffffffffffffffffffffffffffffffffffff168152602001908152602001600020600082015181600001908161012b919061047e565b506020820151816001015560408201518160020160006101000a81548160ff02191690836002811115610161576101606101ff565b5b021790555090505050610550565b600080fd5b600073ffffffffffffffffffffffffffffffffffffffff82169050919050565b600061019f82610174565b9050919050565b6101af81610194565b81146101ba57600080fd5b50565b6000815190506101cc816101a6565b92915050565b6000602082840312156101e8576101e761016f565b5b60006101f6848285016101bd565b91505092915050565b7f4e487b7100000000000000000000000000000000000000000000000000000000600052602160045260246000fd5b600081519050919050565b7f4e487b7100000000000000000000000000000000000000000000000000000000600052604160045260246000fd5b7f4e487b7100000000000000000000000000000000000000000000000000000000600052602260045260246000fd5b600060028204905060018216806102af57607f821691505b6020821081036102c2576102c1610268565b5b50919050565b60008190508160005260206000209050919050565b60006020601f8301049050919050565b600082821b905092915050565b60006008830261032a7fffffffffffffffffffffffffffffffffffffffffffffffffffffffffffffffff826102ed565b61033486836102ed565b95508019841693508086168417925050509392505050565b6000819050919050565b6000819050919050565b600061037b6103766103718461034c565b610356565b61034c565b9050919050565b6000819050919050565b61039583610360565b6103a96103a182610382565b8484546102fa565b825550505050565b600090565b6103be6103b1565b6103c981848461038c565b505050565b5b818110156103ed576103e26000826103b6565b6001810190506103cf565b5050565b601f82111561043257610403816102c8565b61040c846102dd565b8101602085101561041b578190505b61042f610427856102dd565b8301826103ce565b50505b505050565b600082821c905092915050565b600061045560001984600802610437565b1980831691505092915050565b600061046e8383610444565b9150826002028217905092915050565b6104878261022e565b67ffffffffffffffff8111156104a05761049f610239565b5b6104aa8254610297565b6104b58282856103f1565b600060209050601f8311600181146104e857600084156104d6578287015190505b6104e08582610462565b865550610548565b601f1984166104f6866102c8565b60005b8281101561051e578489015182556001820191506020850194506020810190506104f9565b8683101561053b5784890151610537601f891682610444565b8355505b6001600288020188555050505b505050505050565b610f1b8061055f6000396000f3fe608060405234801561001057600080fd5b50600436106100415760003560e01c8063091c45531461004657806380b6e64a1461007657806392146b8b14610092575b600080fd5b610060600480360381019061005b9190610761565b6100b2565b60405161006d91906108fe565b60405180910390f35b610090600480360381019061008b9190610aa6565b6102a8565b005b61009a6104b7565b6040516100a993929190610b7d565b60405180910390f35b6100ba6106bc565b816000600160008373ffffffffffffffffffffffffffffffffffffffff1673ffffffffffffffffffffffffffffffffffffffff16815260200190815260200160002060010154116040518060400160405280601181526020017f555345525f49535f4e4f545f464f554e4400000000000000000000000000000081525090610178576040517f08c379a000000000000000000000000000000000000000000000000000000000815260040161016f9190610bbb565b60405180910390fd5b506000600160008573ffffffffffffffffffffffffffffffffffffffff1673ffffffffffffffffffffffffffffffffffffffff1681526020019081526020016000206040518060600160405290816000820180546101d590610c0c565b80601f016020809104026020016040519081016040528092919081815260200182805461020190610c0c565b801561024e5780601f106102235761010080835404028352916020019161024e565b820191906000526020600020905b81548152906001019060200180831161023157829003601f168201915b50505050508152602001600182015481526020016002820160009054906101000a900460ff16600281111561028657610285610837565b5b600281111561029857610297610837565b5b8152505090508092505050919050565b336000600160008373ffffffffffffffffffffffffffffffffffffffff1673ffffffffffffffffffffffffffffffffffffffff16815260200190815260200160002060010154146040518060400160405280600f81526020017f555345525f49535f43524541544544000000000000000000000000000000000081525090610366576040517f08c379a000000000000000000000000000000000000000000000000000000000815260040161035d9190610bbb565b60405180910390fd5b50604051806060016040528085815260200184815260200183600281111561039157610390610837565b5b815250600160003373ffffffffffffffffffffffffffffffffffffffff1673ffffffffffffffffffffffffffffffffffffffff16815260200190815260200160002060008201518160000190816103e89190610de9565b506020820151816001015560408201518160020160006101000a81548160ff0219169083600281111561041e5761041d610837565b5b021790555090505060008054906101000a900473ffffffffffffffffffffffffffffffffffffffff1673ffffffffffffffffffffffffffffffffffffffff16632e1cd6c2336040518263ffffffff1660e01b815260040161047f9190610eca565b600060405180830381600087803b15801561049957600080fd5b505af11580156104ad573d6000803e3d6000fd5b5050505050505050565b6060600080336000600160008373ffffffffffffffffffffffffffffffffffffffff1673ffffffffffffffffffffffffffffffffffffffff16815260200190815260200160002060010154116040518060400160405280601181526020017f555345525f49535f4e4f545f464f554e440000000000000000000000000000008152509061057a576040517f08c379a00000000000000000000000000000000000000000000000000000000081526004016105719190610bbb565b60405180910390fd5b506000600160003373ffffffffffffffffffffffffffffffffffffffff1673ffffffffffffffffffffffffffffffffffffffff1681526020019081526020016000206040518060600160405290816000820180546105d790610c0c565b80601f016020809104026020016040519081016040528092919081815260200182805461060390610c0c565b80156106505780601f1061062557610100808354040283529160200191610650565b820191906000526020600020905b81548152906001019060200180831161063357829003601f168201915b50505050508152602001600182015481526020016002820160009054906101000a900460ff16600281111561068857610687610837565b5b600281111561069a57610699610837565b5b8152505090508060000151816020015182604001519450945094505050909192565b60405180606001604052806060815260200160008152602001600060028111156106e9576106e8610837565b5b81525090565b6000604051905090565b600080fd5b600080fd5b600073ffffffffffffffffffffffffffffffffffffffff82169050919050565b600061072e82610703565b9050919050565b61073e81610723565b811461074957600080fd5b50565b60008135905061075b81610735565b92915050565b600060208284031215610777576107766106f9565b5b60006107858482850161074c565b91505092915050565b600081519050919050565b600082825260208201905092915050565b60005b838110156107c85780820151818401526020810190506107ad565b60008484015250505050565b6000601f19601f8301169050919050565b60006107f08261078e565b6107fa8185610799565b935061080a8185602086016107aa565b610813816107d4565b840191505092915050565b6000819050919050565b6108318161081e565b82525050565b7f4e487b7100000000000000000000000000000000000000000000000000000000600052602160045260246000fd5b6003811061087757610876610837565b5b50565b600081905061088882610866565b919050565b60006108988261087a565b9050919050565b6108a88161088d565b82525050565b600060608301600083015184820360008601526108cb82826107e5565b91505060208301516108e06020860182610828565b5060408301516108f3604086018261089f565b508091505092915050565b6000602082019050818103600083015261091881846108ae565b905092915050565b600080fd5b600080fd5b7f4e487b7100000000000000000000000000000000000000000000000000000000600052604160045260246000fd5b610962826107d4565b810181811067ffffffffffffffff821117156109815761098061092a565b5b80604052505050565b60006109946106ef565b90506109a08282610959565b919050565b600067ffffffffffffffff8211156109c0576109bf61092a565b5b6109c9826107d4565b9050602081019050919050565b82818337600083830152505050565b60006109f86109f3846109a5565b61098a565b905082815260208101848484011115610a1457610a13610925565b5b610a1f8482856109d6565b509392505050565b600082601f830112610a3c57610a3b610920565b5b8135610a4c8482602086016109e5565b91505092915050565b610a5e8161081e565b8114610a6957600080fd5b50565b600081359050610a7b81610a55565b92915050565b60038110610a8e57600080fd5b50565b600081359050610aa081610a81565b92915050565b600080600060608486031215610abf57610abe6106f9565b5b600084013567ffffffffffffffff811115610add57610adc6106fe565b5b610ae986828701610a27565b9350506020610afa86828701610a6c565b9250506040610b0b86828701610a91565b9150509250925092565b600082825260208201905092915050565b6000610b318261078e565b610b3b8185610b15565b9350610b4b8185602086016107aa565b610b54816107d4565b840191505092915050565b610b688161081e565b82525050565b610b778161088d565b82525050565b60006060820190508181036000830152610b978186610b26565b9050610ba66020830185610b5f565b610bb36040830184610b6e565b949350505050565b60006020820190508181036000830152610bd58184610b26565b905092915050565b7f4e487b7100000000000000000000000000000000000000000000000000000000600052602260045260246000fd5b60006002820490506001821680610c2457607f821691505b602082108103610c3757610c36610bdd565b5b50919050565b60008190508160005260206000209050919050565b60006020601f8301049050919050565b600082821b905092915050565b600060088302610c9f7fffffffffffffffffffffffffffffffffffffffffffffffffffffffffffffffff82610c62565b610ca98683610c62565b95508019841693508086168417925050509392505050565b6000819050919050565b6000610ce6610ce1610cdc8461081e565b610cc1565b61081e565b9050919050565b6000819050919050565b610d0083610ccb565b610d14610d0c82610ced565b848454610c6f565b825550505050565b600090565b610d29610d1c565b610d34818484610cf7565b505050565b5b81811015610d5857610d4d600082610d21565b600181019050610d3a565b5050565b601f821115610d9d57610d6e81610c3d565b610d7784610c52565b81016020851015610d86578190505b610d9a610d9285610c52565b830182610d39565b50505b505050565b600082821c905092915050565b6000610dc060001984600802610da2565b1980831691505092915050565b6000610dd98383610daf565b9150826002028217905092915050565b610df28261078e565b67ffffffffffffffff811115610e0b57610e0a61092a565b5b610e158254610c0c565b610e20828285610d5c565b600060209050601f831160018114610e535760008415610e41578287015190505b610e4b8582610dcd565b865550610eb3565b601f198416610e6186610c3d565b60005b82811015610e8957848901518255600182019150602085019450602081019050610e64565b86831015610ea65784890151610ea2601f891682610daf565b8355505b6001600288020188555050505b505050505050565b610ec481610723565b82525050565b6000602082019050610edf6000830184610ebb565b9291505056fea26469706673582212209c3958cb871286458fc0b3bc334fe17b10590d745ef3d39174d4d45011e72d2864736f6c634300081c0033",
  "linkReferences": {},
  "deployedLinkReferences": {}
}