{
  "_format": "hh-sol-artifact-1",
  "contractName": "UserContract",
  "sourceName": "contracts/User.sol",
  "abi": [
    {
      "inputs": [
        {
          "internalType": "address",
          "name": "_roleManagerAddress",
          "type": "address"
        }
      ],
      "stateMutability": "nonpayable",
      "type": "constructor"
    },
    {
      "inputs": [
        {
          "internalType": "string",
          "name": "_fullName",
          "type": "string"
        },
        {
          "internalType": "uint256",
          "name": "_dateOfBirth",
          "type": "uint256"
        },
        {
          "internalType": "enum UserContract.Gender",
          "name": "_gender",
          "type": "uint8"
        }
      ],
      "name": "createUser",
      "outputs": [],
      "stateMutability": "nonpayable",
      "type": "function"
    },
    {
      "inputs": [],
      "name": "getMyUserData",
      "outputs": [
        {
          "components": [
            {
              "internalType": "string",
              "name": "fullName",
              "type": "string"
            },
            {
              "internalType": "uint256",
              "name": "dateOfBirth",
              "type": "uint256"
            },
            {
              "internalType": "enum UserContract.Gender",
              "name": "gender",
              "type": "uint8"
            }
          ],
          "internalType": "struct UserContract.User",
          "name": "",
          "type": "tuple"
        }
      ],
      "stateMutability": "view",
      "type": "function"
    },
    {
      "inputs": [
        {
          "internalType": "address",
          "name": "userAddr",
          "type": "address"
        }
      ],
      "name": "getOtherUserData",
      "outputs": [
        {
          "components": [
            {
              "internalType": "string",
              "name": "fullName",
              "type": "string"
            },
            {
              "internalType": "uint256",
              "name": "dateOfBirth",
              "type": "uint256"
            },
            {
              "internalType": "enum UserContract.Gender",
              "name": "gender",
              "type": "uint8"
            }
          ],
          "internalType": "struct UserContract.User",
          "name": "",
          "type": "tuple"
        }
      ],
      "stateMutability": "view",
      "type": "function"
    }
  ],
  "bytecode": "0x608060405234801561001057600080fd5b5060405161140b38038061140b833981810160405281019061003291906101d2565b806000806101000a81548173ffffffffffffffffffffffffffffffffffffffff021916908373ffffffffffffffffffffffffffffffffffffffff16021790555060405180606001604052806040518060400160405280600581526020017f41646d696e00000000000000000000000000000000000000000000000000000081525081526020016298968081526020016002808111156100d4576100d36101ff565b5b815250600160003373ffffffffffffffffffffffffffffffffffffffff1673ffffffffffffffffffffffffffffffffffffffff168152602001908152602001600020600082015181600001908161012b919061047e565b506020820151816001015560408201518160020160006101000a81548160ff02191690836002811115610161576101606101ff565b5b021790555090505050610550565b600080fd5b600073ffffffffffffffffffffffffffffffffffffffff82169050919050565b600061019f82610174565b9050919050565b6101af81610194565b81146101ba57600080fd5b50565b6000815190506101cc816101a6565b92915050565b6000602082840312156101e8576101e761016f565b5b60006101f6848285016101bd565b91505092915050565b7f4e487b7100000000000000000000000000000000000000000000000000000000600052602160045260246000fd5b600081519050919050565b7f4e487b7100000000000000000000000000000000000000000000000000000000600052604160045260246000fd5b7f4e487b7100000000000000000000000000000000000000000000000000000000600052602260045260246000fd5b600060028204905060018216806102af57607f821691505b6020821081036102c2576102c1610268565b5b50919050565b60008190508160005260206000209050919050565b60006020601f8301049050919050565b600082821b905092915050565b60006008830261032a7fffffffffffffffffffffffffffffffffffffffffffffffffffffffffffffffff826102ed565b61033486836102ed565b95508019841693508086168417925050509392505050565b6000819050919050565b6000819050919050565b600061037b6103766103718461034c565b610356565b61034c565b9050919050565b6000819050919050565b61039583610360565b6103a96103a182610382565b8484546102fa565b825550505050565b600090565b6103be6103b1565b6103c981848461038c565b505050565b5b818110156103ed576103e26000826103b6565b6001810190506103cf565b5050565b601f82111561043257610403816102c8565b61040c846102dd565b8101602085101561041b578190505b61042f610427856102dd565b8301826103ce565b50505b505050565b600082821c905092915050565b600061045560001984600802610437565b1980831691505092915050565b600061046e8383610444565b9150826002028217905092915050565b6104878261022e565b67ffffffffffffffff8111156104a05761049f610239565b5b6104aa8254610297565b6104b58282856103f1565b600060209050601f8311600181146104e857600084156104d6578287015190505b6104e08582610462565b865550610548565b601f1984166104f6866102c8565b60005b8281101561051e578489015182556001820191506020850194506020810190506104f9565b8683101561053b5784890151610537601f891682610444565b8355505b6001600288020188555050505b505050505050565b610eac8061055f6000396000f3fe608060405234801561001057600080fd5b50600436106100415760003560e01c8063091c45531461004657806380b6e64a1461007657806392146b8b14610092575b600080fd5b610060600480360381019061005b919061074e565b6100b0565b60405161006d91906108eb565b60405180910390f35b610090600480360381019061008b9190610a93565b6102a6565b005b61009a6104b5565b6040516100a791906108eb565b60405180910390f35b6100b86106a9565b816000600160008373ffffffffffffffffffffffffffffffffffffffff1673ffffffffffffffffffffffffffffffffffffffff16815260200190815260200160002060010154116040518060400160405280601181526020017f555345525f49535f4e4f545f464f554e4400000000000000000000000000000081525090610176576040517f08c379a000000000000000000000000000000000000000000000000000000000815260040161016d9190610b4c565b60405180910390fd5b506000600160008573ffffffffffffffffffffffffffffffffffffffff1673ffffffffffffffffffffffffffffffffffffffff1681526020019081526020016000206040518060600160405290816000820180546101d390610b9d565b80601f01602080910402602001604051908101604052809291908181526020018280546101ff90610b9d565b801561024c5780601f106102215761010080835404028352916020019161024c565b820191906000526020600020905b81548152906001019060200180831161022f57829003601f168201915b50505050508152602001600182015481526020016002820160009054906101000a900460ff16600281111561028457610283610824565b5b600281111561029657610295610824565b5b8152505090508092505050919050565b336000600160008373ffffffffffffffffffffffffffffffffffffffff1673ffffffffffffffffffffffffffffffffffffffff16815260200190815260200160002060010154146040518060400160405280600f81526020017f555345525f49535f43524541544544000000000000000000000000000000000081525090610364576040517f08c379a000000000000000000000000000000000000000000000000000000000815260040161035b9190610b4c565b60405180910390fd5b50604051806060016040528085815260200184815260200183600281111561038f5761038e610824565b5b815250600160003373ffffffffffffffffffffffffffffffffffffffff1673ffffffffffffffffffffffffffffffffffffffff16815260200190815260200160002060008201518160000190816103e69190610d7a565b506020820151816001015560408201518160020160006101000a81548160ff0219169083600281111561041c5761041b610824565b5b021790555090505060008054906101000a900473ffffffffffffffffffffffffffffffffffffffff1673ffffffffffffffffffffffffffffffffffffffff16632e1cd6c2336040518263ffffffff1660e01b815260040161047d9190610e5b565b600060405180830381600087803b15801561049757600080fd5b505af11580156104ab573d6000803e3d6000fd5b5050505050505050565b6104bd6106a9565b336000600160008373ffffffffffffffffffffffffffffffffffffffff1673ffffffffffffffffffffffffffffffffffffffff16815260200190815260200160002060010154116040518060400160405280601181526020017f555345525f49535f4e4f545f464f554e440000000000000000000000000000008152509061057b576040517f08c379a00000000000000000000000000000000000000000000000000000000081526004016105729190610b4c565b60405180910390fd5b506000600160003373ffffffffffffffffffffffffffffffffffffffff1673ffffffffffffffffffffffffffffffffffffffff1681526020019081526020016000206040518060600160405290816000820180546105d890610b9d565b80601f016020809104026020016040519081016040528092919081815260200182805461060490610b9d565b80156106515780601f1061062657610100808354040283529160200191610651565b820191906000526020600020905b81548152906001019060200180831161063457829003601f168201915b50505050508152602001600182015481526020016002820160009054906101000a900460ff16600281111561068957610688610824565b5b600281111561069b5761069a610824565b5b815250509050809250505090565b60405180606001604052806060815260200160008152602001600060028111156106d6576106d5610824565b5b81525090565b6000604051905090565b600080fd5b600080fd5b600073ffffffffffffffffffffffffffffffffffffffff82169050919050565b600061071b826106f0565b9050919050565b61072b81610710565b811461073657600080fd5b50565b60008135905061074881610722565b92915050565b600060208284031215610764576107636106e6565b5b600061077284828501610739565b91505092915050565b600081519050919050565b600082825260208201905092915050565b60005b838110156107b557808201518184015260208101905061079a565b60008484015250505050565b6000601f19601f8301169050919050565b60006107dd8261077b565b6107e78185610786565b93506107f7818560208601610797565b610800816107c1565b840191505092915050565b6000819050919050565b61081e8161080b565b82525050565b7f4e487b7100000000000000000000000000000000000000000000000000000000600052602160045260246000fd5b6003811061086457610863610824565b5b50565b600081905061087582610853565b919050565b600061088582610867565b9050919050565b6108958161087a565b82525050565b600060608301600083015184820360008601526108b882826107d2565b91505060208301516108cd6020860182610815565b5060408301516108e0604086018261088c565b508091505092915050565b60006020820190508181036000830152610905818461089b565b905092915050565b600080fd5b600080fd5b7f4e487b7100000000000000000000000000000000000000000000000000000000600052604160045260246000fd5b61094f826107c1565b810181811067ffffffffffffffff8211171561096e5761096d610917565b5b80604052505050565b60006109816106dc565b905061098d8282610946565b919050565b600067ffffffffffffffff8211156109ad576109ac610917565b5b6109b6826107c1565b9050602081019050919050565b82818337600083830152505050565b60006109e56109e084610992565b610977565b905082815260208101848484011115610a0157610a00610912565b5b610a0c8482856109c3565b509392505050565b600082601f830112610a2957610a2861090d565b5b8135610a398482602086016109d2565b91505092915050565b610a4b8161080b565b8114610a5657600080fd5b50565b600081359050610a6881610a42565b92915050565b60038110610a7b57600080fd5b50565b600081359050610a8d81610a6e565b92915050565b600080600060608486031215610aac57610aab6106e6565b5b600084013567ffffffffffffffff811115610aca57610ac96106eb565b5b610ad686828701610a14565b9350506020610ae786828701610a59565b9250506040610af886828701610a7e565b9150509250925092565b600082825260208201905092915050565b6000610b1e8261077b565b610b288185610b02565b9350610b38818560208601610797565b610b41816107c1565b840191505092915050565b60006020820190508181036000830152610b668184610b13565b905092915050565b7f4e487b7100000000000000000000000000000000000000000000000000000000600052602260045260246000fd5b60006002820490506001821680610bb557607f821691505b602082108103610bc857610bc7610b6e565b5b50919050565b60008190508160005260206000209050919050565b60006020601f8301049050919050565b600082821b905092915050565b600060088302610c307fffffffffffffffffffffffffffffffffffffffffffffffffffffffffffffffff82610bf3565b610c3a8683610bf3565b95508019841693508086168417925050509392505050565b6000819050919050565b6000610c77610c72610c6d8461080b565b610c52565b61080b565b9050919050565b6000819050919050565b610c9183610c5c565b610ca5610c9d82610c7e565b848454610c00565b825550505050565b600090565b610cba610cad565b610cc5818484610c88565b505050565b5b81811015610ce957610cde600082610cb2565b600181019050610ccb565b5050565b601f821115610d2e57610cff81610bce565b610d0884610be3565b81016020851015610d17578190505b610d2b610d2385610be3565b830182610cca565b50505b505050565b600082821c905092915050565b6000610d5160001984600802610d33565b1980831691505092915050565b6000610d6a8383610d40565b9150826002028217905092915050565b610d838261077b565b67ffffffffffffffff811115610d9c57610d9b610917565b5b610da68254610b9d565b610db1828285610ced565b600060209050601f831160018114610de45760008415610dd2578287015190505b610ddc8582610d5e565b865550610e44565b601f198416610df286610bce565b60005b82811015610e1a57848901518255600182019150602085019450602081019050610df5565b86831015610e375784890151610e33601f891682610d40565b8355505b6001600288020188555050505b505050505050565b610e5581610710565b82525050565b6000602082019050610e706000830184610e4c565b9291505056fea26469706673582212201c7915228c97589f20c8264be477b2347739214afeab2401798e9e13622ddf3664736f6c634300081c0033",
  "linkReferences": {},
  "deployedLinkReferences": {}
}